{
  "_format": "hh-sol-artifact-1",
  "contractName": "AEV",
  "sourceName": "contracts/AEV.sol",
  "abi": [
    {
      "inputs": [
        {
          "internalType": "string",
          "name": "_name",
          "type": "string"
        },
        {
          "internalType": "string",
          "name": "_symbol",
          "type": "string"
        },
        {
          "internalType": "uint256",
          "name": "_amount",
          "type": "uint256"
        }
      ],
      "stateMutability": "nonpayable",
      "type": "constructor"
    },
    {
      "inputs": [
        {
          "internalType": "address",
          "name": "spender",
          "type": "address"
        },
        {
          "internalType": "uint256",
          "name": "allowance",
          "type": "uint256"
        },
        {
          "internalType": "uint256",
          "name": "needed",
          "type": "uint256"
        }
      ],
      "name": "ERC20InsufficientAllowance",
      "type": "error"
    },
    {
      "inputs": [
        {
          "internalType": "address",
          "name": "sender",
          "type": "address"
        },
        {
          "internalType": "uint256",
          "name": "balance",
          "type": "uint256"
        },
        {
          "internalType": "uint256",
          "name": "needed",
          "type": "uint256"
        }
      ],
      "name": "ERC20InsufficientBalance",
      "type": "error"
    },
    {
      "inputs": [
        {
          "internalType": "address",
          "name": "approver",
          "type": "address"
        }
      ],
      "name": "ERC20InvalidApprover",
      "type": "error"
    },
    {
      "inputs": [
        {
          "internalType": "address",
          "name": "receiver",
          "type": "address"
        }
      ],
      "name": "ERC20InvalidReceiver",
      "type": "error"
    },
    {
      "inputs": [
        {
          "internalType": "address",
          "name": "sender",
          "type": "address"
        }
      ],
      "name": "ERC20InvalidSender",
      "type": "error"
    },
    {
      "inputs": [
        {
          "internalType": "address",
          "name": "spender",
          "type": "address"
        }
      ],
      "name": "ERC20InvalidSpender",
      "type": "error"
    },
    {
      "anonymous": false,
      "inputs": [
        {
          "indexed": true,
          "internalType": "address",
          "name": "owner",
          "type": "address"
        },
        {
          "indexed": true,
          "internalType": "address",
          "name": "spender",
          "type": "address"
        },
        {
          "indexed": false,
          "internalType": "uint256",
          "name": "value",
          "type": "uint256"
        }
      ],
      "name": "Approval",
      "type": "event"
    },
    {
      "anonymous": false,
      "inputs": [
        {
          "indexed": true,
          "internalType": "address",
          "name": "staker",
          "type": "address"
        },
        {
          "indexed": true,
          "internalType": "address",
          "name": "project",
          "type": "address"
        },
        {
          "indexed": false,
          "internalType": "uint256",
          "name": "amount",
          "type": "uint256"
        }
      ],
      "name": "StateToProject",
      "type": "event"
    },
    {
      "anonymous": false,
      "inputs": [
        {
          "indexed": true,
          "internalType": "address",
          "name": "from",
          "type": "address"
        },
        {
          "indexed": true,
          "internalType": "address",
          "name": "to",
          "type": "address"
        },
        {
          "indexed": false,
          "internalType": "uint256",
          "name": "value",
          "type": "uint256"
        }
      ],
      "name": "Transfer",
      "type": "event"
    },
    {
      "inputs": [
        {
          "internalType": "address",
          "name": "owner",
          "type": "address"
        },
        {
          "internalType": "address",
          "name": "spender",
          "type": "address"
        }
      ],
      "name": "allowance",
      "outputs": [
        {
          "internalType": "uint256",
          "name": "",
          "type": "uint256"
        }
      ],
      "stateMutability": "view",
      "type": "function"
    },
    {
      "inputs": [
        {
          "internalType": "address",
          "name": "spender",
          "type": "address"
        },
        {
          "internalType": "uint256",
          "name": "value",
          "type": "uint256"
        }
      ],
      "name": "approve",
      "outputs": [
        {
          "internalType": "bool",
          "name": "",
          "type": "bool"
        }
      ],
      "stateMutability": "nonpayable",
      "type": "function"
    },
    {
      "inputs": [
        {
          "internalType": "address",
          "name": "account",
          "type": "address"
        }
      ],
      "name": "balanceOf",
      "outputs": [
        {
          "internalType": "uint256",
          "name": "",
          "type": "uint256"
        }
      ],
      "stateMutability": "view",
      "type": "function"
    },
    {
      "inputs": [],
      "name": "decimals",
      "outputs": [
        {
          "internalType": "uint8",
          "name": "",
          "type": "uint8"
        }
      ],
      "stateMutability": "view",
      "type": "function"
    },
    {
      "inputs": [
        {
          "internalType": "uint256",
          "name": "_amount",
          "type": "uint256"
        }
      ],
      "name": "mint",
      "outputs": [],
      "stateMutability": "nonpayable",
      "type": "function"
    },
    {
      "inputs": [],
      "name": "name",
      "outputs": [
        {
          "internalType": "string",
          "name": "",
          "type": "string"
        }
      ],
      "stateMutability": "view",
      "type": "function"
    },
    {
      "inputs": [],
      "name": "owner",
      "outputs": [
        {
          "internalType": "address",
          "name": "",
          "type": "address"
        }
      ],
      "stateMutability": "view",
      "type": "function"
    },
    {
      "inputs": [
        {
          "internalType": "address",
          "name": "_project",
          "type": "address"
        },
        {
          "internalType": "uint256",
          "name": "_amount",
          "type": "uint256"
        }
      ],
      "name": "payEnergy",
      "outputs": [],
      "stateMutability": "nonpayable",
      "type": "function"
    },
    {
      "inputs": [
        {
          "internalType": "address",
          "name": "_project",
          "type": "address"
        },
        {
          "internalType": "uint256",
          "name": "_amount",
          "type": "uint256"
        }
      ],
      "name": "stakeToProject",
      "outputs": [],
      "stateMutability": "nonpayable",
      "type": "function"
    },
    {
      "inputs": [],
      "name": "symbol",
      "outputs": [
        {
          "internalType": "string",
          "name": "",
          "type": "string"
        }
      ],
      "stateMutability": "view",
      "type": "function"
    },
    {
      "inputs": [],
      "name": "totalSupply",
      "outputs": [
        {
          "internalType": "uint256",
          "name": "",
          "type": "uint256"
        }
      ],
      "stateMutability": "view",
      "type": "function"
    },
    {
      "inputs": [
        {
          "internalType": "address",
          "name": "to",
          "type": "address"
        },
        {
          "internalType": "uint256",
          "name": "value",
          "type": "uint256"
        }
      ],
      "name": "transfer",
      "outputs": [
        {
          "internalType": "bool",
          "name": "",
          "type": "bool"
        }
      ],
      "stateMutability": "nonpayable",
      "type": "function"
    },
    {
      "inputs": [
        {
          "internalType": "address",
          "name": "from",
          "type": "address"
        },
        {
          "internalType": "address",
          "name": "to",
          "type": "address"
        },
        {
          "internalType": "uint256",
          "name": "value",
          "type": "uint256"
        }
      ],
      "name": "transferFrom",
      "outputs": [
        {
          "internalType": "bool",
          "name": "",
          "type": "bool"
        }
      ],
      "stateMutability": "nonpayable",
      "type": "function"
    }
  ],
  "bytecode": "0x60806040523480156200001157600080fd5b5060405162001cb638038062001cb6833981810160405281019062000037919062000546565b828281600390816200004a919062000821565b5080600490816200005c919062000821565b50505033600560006101000a81548173ffffffffffffffffffffffffffffffffffffffff021916908373ffffffffffffffffffffffffffffffffffffffff160217905550620000b23382620000bb60201b60201c565b50505062000a3f565b600073ffffffffffffffffffffffffffffffffffffffff168273ffffffffffffffffffffffffffffffffffffffff1603620001305760006040517fec442f050000000000000000000000000000000000000000000000000000000081526004016200012791906200094d565b60405180910390fd5b62000144600083836200014860201b60201c565b5050565b600073ffffffffffffffffffffffffffffffffffffffff168373ffffffffffffffffffffffffffffffffffffffff16036200019e57806002600082825462000191919062000999565b9250508190555062000274565b60008060008573ffffffffffffffffffffffffffffffffffffffff1673ffffffffffffffffffffffffffffffffffffffff168152602001908152602001600020549050818110156200022d578381836040517fe450d38c0000000000000000000000000000000000000000000000000000000081526004016200022493929190620009e5565b60405180910390fd5b8181036000808673ffffffffffffffffffffffffffffffffffffffff1673ffffffffffffffffffffffffffffffffffffffff16815260200190815260200160002081905550505b600073ffffffffffffffffffffffffffffffffffffffff168273ffffffffffffffffffffffffffffffffffffffff1603620002bf57806002600082825403925050819055506200030c565b806000808473ffffffffffffffffffffffffffffffffffffffff1673ffffffffffffffffffffffffffffffffffffffff168152602001908152602001600020600082825401925050819055505b8173ffffffffffffffffffffffffffffffffffffffff168373ffffffffffffffffffffffffffffffffffffffff167fddf252ad1be2c89b69c2b068fc378daa952ba7f163c4a11628f55a4df523b3ef836040516200036b919062000a22565b60405180910390a3505050565b6000604051905090565b600080fd5b600080fd5b600080fd5b600080fd5b6000601f19601f8301169050919050565b7f4e487b7100000000000000000000000000000000000000000000000000000000600052604160045260246000fd5b620003e18262000396565b810181811067ffffffffffffffff82111715620004035762000402620003a7565b5b80604052505050565b60006200041862000378565b9050620004268282620003d6565b919050565b600067ffffffffffffffff821115620004495762000448620003a7565b5b620004548262000396565b9050602081019050919050565b60005b838110156200048157808201518184015260208101905062000464565b60008484015250505050565b6000620004a46200049e846200042b565b6200040c565b905082815260208101848484011115620004c357620004c262000391565b5b620004d084828562000461565b509392505050565b600082601f830112620004f057620004ef6200038c565b5b8151620005028482602086016200048d565b91505092915050565b6000819050919050565b62000520816200050b565b81146200052c57600080fd5b50565b600081519050620005408162000515565b92915050565b60008060006060848603121562000562576200056162000382565b5b600084015167ffffffffffffffff81111562000583576200058262000387565b5b6200059186828701620004d8565b935050602084015167ffffffffffffffff811115620005b557620005b462000387565b5b620005c386828701620004d8565b9250506040620005d6868287016200052f565b9150509250925092565b600081519050919050565b7f4e487b7100000000000000000000000000000000000000000000000000000000600052602260045260246000fd5b600060028204905060018216806200063357607f821691505b602082108103620006495762000648620005eb565b5b50919050565b60008190508160005260206000209050919050565b60006020601f8301049050919050565b600082821b905092915050565b600060088302620006b37fffffffffffffffffffffffffffffffffffffffffffffffffffffffffffffffff8262000674565b620006bf868362000674565b95508019841693508086168417925050509392505050565b6000819050919050565b600062000702620006fc620006f6846200050b565b620006d7565b6200050b565b9050919050565b6000819050919050565b6200071e83620006e1565b620007366200072d8262000709565b84845462000681565b825550505050565b600090565b6200074d6200073e565b6200075a81848462000713565b505050565b5b8181101562000782576200077660008262000743565b60018101905062000760565b5050565b601f821115620007d1576200079b816200064f565b620007a68462000664565b81016020851015620007b6578190505b620007ce620007c58562000664565b8301826200075f565b50505b505050565b600082821c905092915050565b6000620007f660001984600802620007d6565b1980831691505092915050565b6000620008118383620007e3565b9150826002028217905092915050565b6200082c82620005e0565b67ffffffffffffffff811115620008485762000847620003a7565b5b6200085482546200061a565b6200086182828562000786565b600060209050601f83116001811462000899576000841562000884578287015190505b62000890858262000803565b86555062000900565b601f198416620008a9866200064f565b60005b82811015620008d357848901518255600182019150602085019450602081019050620008ac565b86831015620008f35784890151620008ef601f891682620007e3565b8355505b6001600288020188555050505b505050505050565b600073ffffffffffffffffffffffffffffffffffffffff82169050919050565b6000620009358262000908565b9050919050565b620009478162000928565b82525050565b60006020820190506200096460008301846200093c565b92915050565b7f4e487b7100000000000000000000000000000000000000000000000000000000600052601160045260246000fd5b6000620009a6826200050b565b9150620009b3836200050b565b9250828201905080821115620009ce57620009cd6200096a565b5b92915050565b620009df816200050b565b82525050565b6000606082019050620009fc60008301866200093c565b62000a0b6020830185620009d4565b62000a1a6040830184620009d4565b949350505050565b600060208201905062000a396000830184620009d4565b92915050565b6112678062000a4f6000396000f3fe608060405234801561001057600080fd5b50600436106100cf5760003560e01c806367d2c2de1161008c57806395d89b411161006657806395d89b4114610214578063a0712d6814610232578063a9059cbb1461024e578063dd62ed3e1461027e576100cf565b806367d2c2de146101aa57806370a08231146101c65780638da5cb5b146101f6576100cf565b806306fdde03146100d4578063095ea7b3146100f257806318160ddd1461012257806323b872dd14610140578063313ce567146101705780634e1f60181461018e575b600080fd5b6100dc6102ae565b6040516100e99190610df9565b60405180910390f35b61010c60048036038101906101079190610eb4565b610340565b6040516101199190610f0f565b60405180910390f35b61012a610363565b6040516101379190610f39565b60405180910390f35b61015a60048036038101906101559190610f54565b61036d565b6040516101679190610f0f565b60405180910390f35b61017861039c565b6040516101859190610fc3565b60405180910390f35b6101a860048036038101906101a39190610eb4565b6103a5565b005b6101c460048036038101906101bf9190610eb4565b610486565b005b6101e060048036038101906101db9190610fde565b610500565b6040516101ed9190610f39565b60405180910390f35b6101fe610548565b60405161020b919061101a565b60405180910390f35b61021c61056e565b6040516102299190610df9565b60405180910390f35b61024c60048036038101906102479190611035565b610600565b005b61026860048036038101906102639190610eb4565b61069f565b6040516102759190610f0f565b60405180910390f35b61029860048036038101906102939190611062565b6106c2565b6040516102a59190610f39565b60405180910390f35b6060600380546102bd906110d1565b80601f01602080910402602001604051908101604052809291908181526020018280546102e9906110d1565b80156103365780601f1061030b57610100808354040283529160200191610336565b820191906000526020600020905b81548152906001019060200180831161031957829003601f168201915b5050505050905090565b60008061034b610749565b9050610358818585610751565b600191505092915050565b6000600254905090565b600080610378610749565b9050610385858285610763565b6103908585856107f7565b60019150509392505050565b60006012905090565b6103b03383836107f7565b8173ffffffffffffffffffffffffffffffffffffffff1663a9059cbb33836040518363ffffffff1660e01b81526004016103eb929190611102565b600060405180830381600087803b15801561040557600080fd5b505af1158015610419573d6000803e3d6000fd5b505050508173ffffffffffffffffffffffffffffffffffffffff163373ffffffffffffffffffffffffffffffffffffffff167fe951268381f3ec29aca2a5ff814b45d0afab1f3d8d94137591d15b3cb4e1ae138360405161047a9190610f39565b60405180910390a35050565b6104913383836107f7565b8173ffffffffffffffffffffffffffffffffffffffff16638d2868d8826040518263ffffffff1660e01b81526004016104ca9190610f39565b600060405180830381600087803b1580156104e457600080fd5b505af11580156104f8573d6000803e3d6000fd5b505050505050565b60008060008373ffffffffffffffffffffffffffffffffffffffff1673ffffffffffffffffffffffffffffffffffffffff168152602001908152602001600020549050919050565b600560009054906101000a900473ffffffffffffffffffffffffffffffffffffffff1681565b60606004805461057d906110d1565b80601f01602080910402602001604051908101604052809291908181526020018280546105a9906110d1565b80156105f65780601f106105cb576101008083540402835291602001916105f6565b820191906000526020600020905b8154815290600101906020018083116105d957829003601f168201915b5050505050905090565b600560009054906101000a900473ffffffffffffffffffffffffffffffffffffffff163373ffffffffffffffffffffffffffffffffffffffff168173ffffffffffffffffffffffffffffffffffffffff1614610691576040517f08c379a000000000000000000000000000000000000000000000000000000000815260040161068890611177565b60405180910390fd5b61069b33836108eb565b5050565b6000806106aa610749565b90506106b78185856107f7565b600191505092915050565b6000600160008473ffffffffffffffffffffffffffffffffffffffff1673ffffffffffffffffffffffffffffffffffffffff16815260200190815260200160002060008373ffffffffffffffffffffffffffffffffffffffff1673ffffffffffffffffffffffffffffffffffffffff16815260200190815260200160002054905092915050565b600033905090565b61075e838383600161096d565b505050565b600061076f84846106c2565b90507fffffffffffffffffffffffffffffffffffffffffffffffffffffffffffffffff81146107f157818110156107e1578281836040517ffb8f41b20000000000000000000000000000000000000000000000000000000081526004016107d893929190611197565b60405180910390fd5b6107f08484848403600061096d565b5b50505050565b600073ffffffffffffffffffffffffffffffffffffffff168373ffffffffffffffffffffffffffffffffffffffff16036108695760006040517f96c6fd1e000000000000000000000000000000000000000000000000000000008152600401610860919061101a565b60405180910390fd5b600073ffffffffffffffffffffffffffffffffffffffff168273ffffffffffffffffffffffffffffffffffffffff16036108db5760006040517fec442f050000000000000000000000000000000000000000000000000000000081526004016108d2919061101a565b60405180910390fd5b6108e6838383610b44565b505050565b600073ffffffffffffffffffffffffffffffffffffffff168273ffffffffffffffffffffffffffffffffffffffff160361095d5760006040517fec442f05000000000000000000000000000000000000000000000000000000008152600401610954919061101a565b60405180910390fd5b61096960008383610b44565b5050565b600073ffffffffffffffffffffffffffffffffffffffff168473ffffffffffffffffffffffffffffffffffffffff16036109df5760006040517fe602df050000000000000000000000000000000000000000000000000000000081526004016109d6919061101a565b60405180910390fd5b600073ffffffffffffffffffffffffffffffffffffffff168373ffffffffffffffffffffffffffffffffffffffff1603610a515760006040517f94280d62000000000000000000000000000000000000000000000000000000008152600401610a48919061101a565b60405180910390fd5b81600160008673ffffffffffffffffffffffffffffffffffffffff1673ffffffffffffffffffffffffffffffffffffffff16815260200190815260200160002060008573ffffffffffffffffffffffffffffffffffffffff1673ffffffffffffffffffffffffffffffffffffffff168152602001908152602001600020819055508015610b3e578273ffffffffffffffffffffffffffffffffffffffff168473ffffffffffffffffffffffffffffffffffffffff167f8c5be1e5ebec7d5bd14f71427d1e84f3dd0314c0f7b2291e5b200ac8c7c3b92584604051610b359190610f39565b60405180910390a35b50505050565b600073ffffffffffffffffffffffffffffffffffffffff168373ffffffffffffffffffffffffffffffffffffffff1603610b96578060026000828254610b8a91906111fd565b92505081905550610c69565b60008060008573ffffffffffffffffffffffffffffffffffffffff1673ffffffffffffffffffffffffffffffffffffffff16815260200190815260200160002054905081811015610c22578381836040517fe450d38c000000000000000000000000000000000000000000000000000000008152600401610c1993929190611197565b60405180910390fd5b8181036000808673ffffffffffffffffffffffffffffffffffffffff1673ffffffffffffffffffffffffffffffffffffffff16815260200190815260200160002081905550505b600073ffffffffffffffffffffffffffffffffffffffff168273ffffffffffffffffffffffffffffffffffffffff1603610cb25780600260008282540392505081905550610cff565b806000808473ffffffffffffffffffffffffffffffffffffffff1673ffffffffffffffffffffffffffffffffffffffff168152602001908152602001600020600082825401925050819055505b8173ffffffffffffffffffffffffffffffffffffffff168373ffffffffffffffffffffffffffffffffffffffff167fddf252ad1be2c89b69c2b068fc378daa952ba7f163c4a11628f55a4df523b3ef83604051610d5c9190610f39565b60405180910390a3505050565b600081519050919050565b600082825260208201905092915050565b60005b83811015610da3578082015181840152602081019050610d88565b60008484015250505050565b6000601f19601f8301169050919050565b6000610dcb82610d69565b610dd58185610d74565b9350610de5818560208601610d85565b610dee81610daf565b840191505092915050565b60006020820190508181036000830152610e138184610dc0565b905092915050565b600080fd5b600073ffffffffffffffffffffffffffffffffffffffff82169050919050565b6000610e4b82610e20565b9050919050565b610e5b81610e40565b8114610e6657600080fd5b50565b600081359050610e7881610e52565b92915050565b6000819050919050565b610e9181610e7e565b8114610e9c57600080fd5b50565b600081359050610eae81610e88565b92915050565b60008060408385031215610ecb57610eca610e1b565b5b6000610ed985828601610e69565b9250506020610eea85828601610e9f565b9150509250929050565b60008115159050919050565b610f0981610ef4565b82525050565b6000602082019050610f246000830184610f00565b92915050565b610f3381610e7e565b82525050565b6000602082019050610f4e6000830184610f2a565b92915050565b600080600060608486031215610f6d57610f6c610e1b565b5b6000610f7b86828701610e69565b9350506020610f8c86828701610e69565b9250506040610f9d86828701610e9f565b9150509250925092565b600060ff82169050919050565b610fbd81610fa7565b82525050565b6000602082019050610fd86000830184610fb4565b92915050565b600060208284031215610ff457610ff3610e1b565b5b600061100284828501610e69565b91505092915050565b61101481610e40565b82525050565b600060208201905061102f600083018461100b565b92915050565b60006020828403121561104b5761104a610e1b565b5b600061105984828501610e9f565b91505092915050565b6000806040838503121561107957611078610e1b565b5b600061108785828601610e69565b925050602061109885828601610e69565b9150509250929050565b7f4e487b7100000000000000000000000000000000000000000000000000000000600052602260045260246000fd5b600060028204905060018216806110e957607f821691505b6020821081036110fc576110fb6110a2565b5b50919050565b6000604082019050611117600083018561100b565b6111246020830184610f2a565b9392505050565b7f496e76616c6964206f776e657221000000000000000000000000000000000000600082015250565b6000611161600e83610d74565b915061116c8261112b565b602082019050919050565b6000602082019050818103600083015261119081611154565b9050919050565b60006060820190506111ac600083018661100b565b6111b96020830185610f2a565b6111c66040830184610f2a565b949350505050565b7f4e487b7100000000000000000000000000000000000000000000000000000000600052601160045260246000fd5b600061120882610e7e565b915061121383610e7e565b925082820190508082111561122b5761122a6111ce565b5b9291505056fea2646970667358221220d39700979bc7daaa1783ba09ca561457345a79825d7729bbd95ca0fa2ca311a964736f6c63430008180033",
  "linkReferences": {},
  "deployedLinkReferences": {}
}