{
  "_format": "hh-sol-artifact-1",
  "contractName": "AEV",
  "sourceName": "contracts/AEV.sol",
  "abi": [
    {
      "inputs": [
        {
          "internalType": "string",
          "name": "_name",
          "type": "string"
        },
        {
          "internalType": "string",
          "name": "_symbol",
          "type": "string"
        },
        {
          "internalType": "uint256",
          "name": "_amount",
          "type": "uint256"
        }
      ],
      "stateMutability": "nonpayable",
      "type": "constructor"
    },
    {
      "inputs": [
        {
          "internalType": "address",
          "name": "spender",
          "type": "address"
        },
        {
          "internalType": "uint256",
          "name": "allowance",
          "type": "uint256"
        },
        {
          "internalType": "uint256",
          "name": "needed",
          "type": "uint256"
        }
      ],
      "name": "ERC20InsufficientAllowance",
      "type": "error"
    },
    {
      "inputs": [
        {
          "internalType": "address",
          "name": "sender",
          "type": "address"
        },
        {
          "internalType": "uint256",
          "name": "balance",
          "type": "uint256"
        },
        {
          "internalType": "uint256",
          "name": "needed",
          "type": "uint256"
        }
      ],
      "name": "ERC20InsufficientBalance",
      "type": "error"
    },
    {
      "inputs": [
        {
          "internalType": "address",
          "name": "approver",
          "type": "address"
        }
      ],
      "name": "ERC20InvalidApprover",
      "type": "error"
    },
    {
      "inputs": [
        {
          "internalType": "address",
          "name": "receiver",
          "type": "address"
        }
      ],
      "name": "ERC20InvalidReceiver",
      "type": "error"
    },
    {
      "inputs": [
        {
          "internalType": "address",
          "name": "sender",
          "type": "address"
        }
      ],
      "name": "ERC20InvalidSender",
      "type": "error"
    },
    {
      "inputs": [
        {
          "internalType": "address",
          "name": "spender",
          "type": "address"
        }
      ],
      "name": "ERC20InvalidSpender",
      "type": "error"
    },
    {
      "anonymous": false,
      "inputs": [
        {
          "indexed": true,
          "internalType": "address",
          "name": "owner",
          "type": "address"
        },
        {
          "indexed": true,
          "internalType": "address",
          "name": "spender",
          "type": "address"
        },
        {
          "indexed": false,
          "internalType": "uint256",
          "name": "value",
          "type": "uint256"
        }
      ],
      "name": "Approval",
      "type": "event"
    },
    {
      "anonymous": false,
      "inputs": [
        {
          "indexed": true,
          "internalType": "address",
          "name": "tokenVesting",
          "type": "address"
        }
      ],
      "name": "CreateTokenVesting",
      "type": "event"
    },
    {
      "anonymous": false,
      "inputs": [
        {
          "indexed": true,
          "internalType": "address",
          "name": "staker",
          "type": "address"
        },
        {
          "indexed": true,
          "internalType": "address",
          "name": "project",
          "type": "address"
        },
        {
          "indexed": false,
          "internalType": "uint256",
          "name": "amount",
          "type": "uint256"
        }
      ],
      "name": "StakeToProject",
      "type": "event"
    },
    {
      "anonymous": false,
      "inputs": [
        {
          "indexed": true,
          "internalType": "address",
          "name": "from",
          "type": "address"
        },
        {
          "indexed": true,
          "internalType": "address",
          "name": "to",
          "type": "address"
        },
        {
          "indexed": false,
          "internalType": "uint256",
          "name": "value",
          "type": "uint256"
        }
      ],
      "name": "Transfer",
      "type": "event"
    },
    {
      "inputs": [
        {
          "internalType": "address",
          "name": "owner",
          "type": "address"
        },
        {
          "internalType": "address",
          "name": "spender",
          "type": "address"
        }
      ],
      "name": "allowance",
      "outputs": [
        {
          "internalType": "uint256",
          "name": "",
          "type": "uint256"
        }
      ],
      "stateMutability": "view",
      "type": "function"
    },
    {
      "inputs": [
        {
          "internalType": "address",
          "name": "spender",
          "type": "address"
        },
        {
          "internalType": "uint256",
          "name": "value",
          "type": "uint256"
        }
      ],
      "name": "approve",
      "outputs": [
        {
          "internalType": "bool",
          "name": "",
          "type": "bool"
        }
      ],
      "stateMutability": "nonpayable",
      "type": "function"
    },
    {
      "inputs": [
        {
          "internalType": "address",
          "name": "account",
          "type": "address"
        }
      ],
      "name": "balanceOf",
      "outputs": [
        {
          "internalType": "uint256",
          "name": "",
          "type": "uint256"
        }
      ],
      "stateMutability": "view",
      "type": "function"
    },
    {
      "inputs": [
        {
          "internalType": "string",
          "name": "_name",
          "type": "string"
        },
        {
          "internalType": "uint256",
          "name": "_amount",
          "type": "uint256"
        }
      ],
      "name": "createTokenVesting",
      "outputs": [],
      "stateMutability": "nonpayable",
      "type": "function"
    },
    {
      "inputs": [],
      "name": "decimals",
      "outputs": [
        {
          "internalType": "uint8",
          "name": "",
          "type": "uint8"
        }
      ],
      "stateMutability": "view",
      "type": "function"
    },
    {
      "inputs": [
        {
          "internalType": "uint256",
          "name": "_amount",
          "type": "uint256"
        }
      ],
      "name": "mint",
      "outputs": [],
      "stateMutability": "nonpayable",
      "type": "function"
    },
    {
      "inputs": [],
      "name": "name",
      "outputs": [
        {
          "internalType": "string",
          "name": "",
          "type": "string"
        }
      ],
      "stateMutability": "view",
      "type": "function"
    },
    {
      "inputs": [],
      "name": "owner",
      "outputs": [
        {
          "internalType": "address",
          "name": "",
          "type": "address"
        }
      ],
      "stateMutability": "view",
      "type": "function"
    },
    {
      "inputs": [
        {
          "internalType": "address",
          "name": "_project",
          "type": "address"
        },
        {
          "internalType": "uint256",
          "name": "_amount",
          "type": "uint256"
        }
      ],
      "name": "payEnergy",
      "outputs": [],
      "stateMutability": "nonpayable",
      "type": "function"
    },
    {
      "inputs": [
        {
          "internalType": "address",
          "name": "_project",
          "type": "address"
        },
        {
          "internalType": "uint256",
          "name": "_amount",
          "type": "uint256"
        }
      ],
      "name": "stakeToProject",
      "outputs": [],
      "stateMutability": "nonpayable",
      "type": "function"
    },
    {
      "inputs": [],
      "name": "symbol",
      "outputs": [
        {
          "internalType": "string",
          "name": "",
          "type": "string"
        }
      ],
      "stateMutability": "view",
      "type": "function"
    },
    {
      "inputs": [],
      "name": "totalSupply",
      "outputs": [
        {
          "internalType": "uint256",
          "name": "",
          "type": "uint256"
        }
      ],
      "stateMutability": "view",
      "type": "function"
    },
    {
      "inputs": [
        {
          "internalType": "address",
          "name": "to",
          "type": "address"
        },
        {
          "internalType": "uint256",
          "name": "value",
          "type": "uint256"
        }
      ],
      "name": "transfer",
      "outputs": [
        {
          "internalType": "bool",
          "name": "",
          "type": "bool"
        }
      ],
      "stateMutability": "nonpayable",
      "type": "function"
    },
    {
      "inputs": [
        {
          "internalType": "address",
          "name": "from",
          "type": "address"
        },
        {
          "internalType": "address",
          "name": "to",
          "type": "address"
        },
        {
          "internalType": "uint256",
          "name": "value",
          "type": "uint256"
        }
      ],
      "name": "transferFrom",
      "outputs": [
        {
          "internalType": "bool",
          "name": "",
          "type": "bool"
        }
      ],
      "stateMutability": "nonpayable",
      "type": "function"
    }
  ],
  "bytecode": "0x60806040523480156200001157600080fd5b5060405162004ecc38038062004ecc833981810160405281019062000037919062000546565b828281600390816200004a919062000821565b5080600490816200005c919062000821565b50505033600560006101000a81548173ffffffffffffffffffffffffffffffffffffffff021916908373ffffffffffffffffffffffffffffffffffffffff160217905550620000b23382620000bb60201b60201c565b50505062000a3f565b600073ffffffffffffffffffffffffffffffffffffffff168273ffffffffffffffffffffffffffffffffffffffff1603620001305760006040517fec442f050000000000000000000000000000000000000000000000000000000081526004016200012791906200094d565b60405180910390fd5b62000144600083836200014860201b60201c565b5050565b600073ffffffffffffffffffffffffffffffffffffffff168373ffffffffffffffffffffffffffffffffffffffff16036200019e57806002600082825462000191919062000999565b9250508190555062000274565b60008060008573ffffffffffffffffffffffffffffffffffffffff1673ffffffffffffffffffffffffffffffffffffffff168152602001908152602001600020549050818110156200022d578381836040517fe450d38c0000000000000000000000000000000000000000000000000000000081526004016200022493929190620009e5565b60405180910390fd5b8181036000808673ffffffffffffffffffffffffffffffffffffffff1673ffffffffffffffffffffffffffffffffffffffff16815260200190815260200160002081905550505b600073ffffffffffffffffffffffffffffffffffffffff168273ffffffffffffffffffffffffffffffffffffffff1603620002bf57806002600082825403925050819055506200030c565b806000808473ffffffffffffffffffffffffffffffffffffffff1673ffffffffffffffffffffffffffffffffffffffff168152602001908152602001600020600082825401925050819055505b8173ffffffffffffffffffffffffffffffffffffffff168373ffffffffffffffffffffffffffffffffffffffff167fddf252ad1be2c89b69c2b068fc378daa952ba7f163c4a11628f55a4df523b3ef836040516200036b919062000a22565b60405180910390a3505050565b6000604051905090565b600080fd5b600080fd5b600080fd5b600080fd5b6000601f19601f8301169050919050565b7f4e487b7100000000000000000000000000000000000000000000000000000000600052604160045260246000fd5b620003e18262000396565b810181811067ffffffffffffffff82111715620004035762000402620003a7565b5b80604052505050565b60006200041862000378565b9050620004268282620003d6565b919050565b600067ffffffffffffffff821115620004495762000448620003a7565b5b620004548262000396565b9050602081019050919050565b60005b838110156200048157808201518184015260208101905062000464565b60008484015250505050565b6000620004a46200049e846200042b565b6200040c565b905082815260208101848484011115620004c357620004c262000391565b5b620004d084828562000461565b509392505050565b600082601f830112620004f057620004ef6200038c565b5b8151620005028482602086016200048d565b91505092915050565b6000819050919050565b62000520816200050b565b81146200052c57600080fd5b50565b600081519050620005408162000515565b92915050565b60008060006060848603121562000562576200056162000382565b5b600084015167ffffffffffffffff81111562000583576200058262000387565b5b6200059186828701620004d8565b935050602084015167ffffffffffffffff811115620005b557620005b462000387565b5b620005c386828701620004d8565b9250506040620005d6868287016200052f565b9150509250925092565b600081519050919050565b7f4e487b7100000000000000000000000000000000000000000000000000000000600052602260045260246000fd5b600060028204905060018216806200063357607f821691505b602082108103620006495762000648620005eb565b5b50919050565b60008190508160005260206000209050919050565b60006020601f8301049050919050565b600082821b905092915050565b600060088302620006b37fffffffffffffffffffffffffffffffffffffffffffffffffffffffffffffffff8262000674565b620006bf868362000674565b95508019841693508086168417925050509392505050565b6000819050919050565b600062000702620006fc620006f6846200050b565b620006d7565b6200050b565b9050919050565b6000819050919050565b6200071e83620006e1565b620007366200072d8262000709565b84845462000681565b825550505050565b600090565b6200074d6200073e565b6200075a81848462000713565b505050565b5b8181101562000782576200077660008262000743565b60018101905062000760565b5050565b601f821115620007d1576200079b816200064f565b620007a68462000664565b81016020851015620007b6578190505b620007ce620007c58562000664565b8301826200075f565b50505b505050565b600082821c905092915050565b6000620007f660001984600802620007d6565b1980831691505092915050565b6000620008118383620007e3565b9150826002028217905092915050565b6200082c82620005e0565b67ffffffffffffffff811115620008485762000847620003a7565b5b6200085482546200061a565b6200086182828562000786565b600060209050601f83116001811462000899576000841562000884578287015190505b62000890858262000803565b86555062000900565b601f198416620008a9866200064f565b60005b82811015620008d357848901518255600182019150602085019450602081019050620008ac565b86831015620008f35784890151620008ef601f891682620007e3565b8355505b6001600288020188555050505b505050505050565b600073ffffffffffffffffffffffffffffffffffffffff82169050919050565b6000620009358262000908565b9050919050565b620009478162000928565b82525050565b60006020820190506200096460008301846200093c565b92915050565b7f4e487b7100000000000000000000000000000000000000000000000000000000600052601160045260246000fd5b6000620009a6826200050b565b9150620009b3836200050b565b9250828201905080821115620009ce57620009cd6200096a565b5b92915050565b620009df816200050b565b82525050565b6000606082019050620009fc60008301866200093c565b62000a0b6020830185620009d4565b62000a1a6040830184620009d4565b949350505050565b600060208201905062000a396000830184620009d4565b92915050565b61447d8062000a4f6000396000f3fe60806040523480156200001157600080fd5b5060043610620001005760003560e01c806370a082311162000099578063a0712d68116200006f578063a0712d681462000291578063a9059cbb14620002b1578063dd62ed3e14620002e7578063f65cf806146200031d5762000100565b806370a0823114620002175780638da5cb5b146200024d57806395d89b41146200026f5762000100565b806323b872dd11620000db57806323b872dd146200017f578063313ce56714620001b55780634e1f601814620001d757806367d2c2de14620001f75762000100565b806306fdde031462000105578063095ea7b3146200012757806318160ddd146200015d575b600080fd5b6200010f6200033d565b6040516200011e91906200104c565b60405180910390f35b6200014560048036038101906200013f91906200111a565b620003d7565b6040516200015491906200117e565b60405180910390f35b62000167620003fe565b604051620001769190620011ac565b60405180910390f35b6200019d6004803603810190620001979190620011c9565b62000408565b604051620001ac91906200117e565b60405180910390f35b620001bf6200043d565b604051620001ce919062001243565b60405180910390f35b620001f56004803603810190620001ef91906200111a565b62000446565b005b6200021560048036038101906200020f91906200111a565b6200052f565b005b6200023560048036038101906200022f919062001260565b620005af565b604051620002449190620011ac565b60405180910390f35b62000257620005f7565b604051620002669190620012a3565b60405180910390f35b620002796200061d565b6040516200028891906200104c565b60405180910390f35b620002af6004803603810190620002a99190620012c0565b620006b7565b005b620002cf6004803603810190620002c991906200111a565b6200075b565b604051620002de91906200117e565b60405180910390f35b620003056004803603810190620002ff9190620012f2565b62000782565b604051620003149190620011ac565b60405180910390f35b6200033b6004803603810190620003359190620013a7565b62000809565b005b6060600380546200034e9062001440565b80601f01602080910402602001604051908101604052809291908181526020018280546200037c9062001440565b8015620003cd5780601f10620003a157610100808354040283529160200191620003cd565b820191906000526020600020905b815481529060010190602001808311620003af57829003601f168201915b5050505050905090565b600080620003e462000959565b9050620003f381858562000961565b600191505092915050565b6000600254905090565b6000806200041562000959565b90506200042485828562000975565b6200043185858562000a11565b60019150509392505050565b60006012905090565b6200045333838362000a11565b8173ffffffffffffffffffffffffffffffffffffffff1663a9059cbb33836040518363ffffffff1660e01b81526004016200049092919062001475565b600060405180830381600087803b158015620004ab57600080fd5b505af1158015620004c0573d6000803e3d6000fd5b505050508173ffffffffffffffffffffffffffffffffffffffff163373ffffffffffffffffffffffffffffffffffffffff167f3510e446b74ca4fe88a21a76f096013ec7eb3b0039624f4dea1d04c1e8bf1f6883604051620005239190620011ac565b60405180910390a35050565b6200053c33838362000a11565b8173ffffffffffffffffffffffffffffffffffffffff16638d2868d8826040518263ffffffff1660e01b8152600401620005779190620011ac565b600060405180830381600087803b1580156200059257600080fd5b505af1158015620005a7573d6000803e3d6000fd5b505050505050565b60008060008373ffffffffffffffffffffffffffffffffffffffff1673ffffffffffffffffffffffffffffffffffffffff168152602001908152602001600020549050919050565b600560009054906101000a900473ffffffffffffffffffffffffffffffffffffffff1681565b6060600480546200062e9062001440565b80601f01602080910402602001604051908101604052809291908181526020018280546200065c9062001440565b8015620006ad5780601f106200068157610100808354040283529160200191620006ad565b820191906000526020600020905b8154815290600101906020018083116200068f57829003601f168201915b5050505050905090565b600560009054906101000a900473ffffffffffffffffffffffffffffffffffffffff163373ffffffffffffffffffffffffffffffffffffffff168173ffffffffffffffffffffffffffffffffffffffff16146200074b576040517f08c379a00000000000000000000000000000000000000000000000000000000081526004016200074290620014f2565b60405180910390fd5b62000757338362000b0d565b5050565b6000806200076862000959565b90506200077781858562000a11565b600191505092915050565b6000600160008473ffffffffffffffffffffffffffffffffffffffff1673ffffffffffffffffffffffffffffffffffffffff16815260200190815260200160002060008373ffffffffffffffffffffffffffffffffffffffff1673ffffffffffffffffffffffffffffffffffffffff16815260200190815260200160002054905092915050565b600560009054906101000a900473ffffffffffffffffffffffffffffffffffffffff163373ffffffffffffffffffffffffffffffffffffffff168173ffffffffffffffffffffffffffffffffffffffff16146200089d576040517f08c379a00000000000000000000000000000000000000000000000000000000081526004016200089490620014f2565b60405180910390fd5b6000600560009054906101000a900473ffffffffffffffffffffffffffffffffffffffff16858530604051620008d39062000fa4565b620008e2949392919062001556565b604051809103906000f080158015620008ff573d6000803e3d6000fd5b5090506200090f33828562000a11565b8073ffffffffffffffffffffffffffffffffffffffff167fd4ff12e1f726c732d10a3133e5dbe063732c7c96da5718cc766a873f2f79fb0760405160405180910390a25050505050565b600033905090565b62000970838383600162000b94565b505050565b600062000983848462000782565b90507fffffffffffffffffffffffffffffffffffffffffffffffffffffffffffffffff811462000a0b5781811015620009f9578281836040517ffb8f41b2000000000000000000000000000000000000000000000000000000008152600401620009f0939291906200159c565b60405180910390fd5b62000a0a8484848403600062000b94565b5b50505050565b600073ffffffffffffffffffffffffffffffffffffffff168373ffffffffffffffffffffffffffffffffffffffff160362000a865760006040517f96c6fd1e00000000000000000000000000000000000000000000000000000000815260040162000a7d9190620012a3565b60405180910390fd5b600073ffffffffffffffffffffffffffffffffffffffff168273ffffffffffffffffffffffffffffffffffffffff160362000afb5760006040517fec442f0500000000000000000000000000000000000000000000000000000000815260040162000af29190620012a3565b60405180910390fd5b62000b0883838362000d74565b505050565b600073ffffffffffffffffffffffffffffffffffffffff168273ffffffffffffffffffffffffffffffffffffffff160362000b825760006040517fec442f0500000000000000000000000000000000000000000000000000000000815260040162000b799190620012a3565b60405180910390fd5b62000b906000838362000d74565b5050565b600073ffffffffffffffffffffffffffffffffffffffff168473ffffffffffffffffffffffffffffffffffffffff160362000c095760006040517fe602df0500000000000000000000000000000000000000000000000000000000815260040162000c009190620012a3565b60405180910390fd5b600073ffffffffffffffffffffffffffffffffffffffff168373ffffffffffffffffffffffffffffffffffffffff160362000c7e5760006040517f94280d6200000000000000000000000000000000000000000000000000000000815260040162000c759190620012a3565b60405180910390fd5b81600160008673ffffffffffffffffffffffffffffffffffffffff1673ffffffffffffffffffffffffffffffffffffffff16815260200190815260200160002060008573ffffffffffffffffffffffffffffffffffffffff1673ffffffffffffffffffffffffffffffffffffffff16815260200190815260200160002081905550801562000d6e578273ffffffffffffffffffffffffffffffffffffffff168473ffffffffffffffffffffffffffffffffffffffff167f8c5be1e5ebec7d5bd14f71427d1e84f3dd0314c0f7b2291e5b200ac8c7c3b9258460405162000d659190620011ac565b60405180910390a35b50505050565b600073ffffffffffffffffffffffffffffffffffffffff168373ffffffffffffffffffffffffffffffffffffffff160362000dca57806002600082825462000dbd919062001608565b9250508190555062000ea0565b60008060008573ffffffffffffffffffffffffffffffffffffffff1673ffffffffffffffffffffffffffffffffffffffff1681526020019081526020016000205490508181101562000e59578381836040517fe450d38c00000000000000000000000000000000000000000000000000000000815260040162000e50939291906200159c565b60405180910390fd5b8181036000808673ffffffffffffffffffffffffffffffffffffffff1673ffffffffffffffffffffffffffffffffffffffff16815260200190815260200160002081905550505b600073ffffffffffffffffffffffffffffffffffffffff168273ffffffffffffffffffffffffffffffffffffffff160362000eeb578060026000828254039250508190555062000f38565b806000808473ffffffffffffffffffffffffffffffffffffffff1673ffffffffffffffffffffffffffffffffffffffff168152602001908152602001600020600082825401925050819055505b8173ffffffffffffffffffffffffffffffffffffffff168373ffffffffffffffffffffffffffffffffffffffff167fddf252ad1be2c89b69c2b068fc378daa952ba7f163c4a11628f55a4df523b3ef8360405162000f979190620011ac565b60405180910390a3505050565b612e04806200164483390190565b600081519050919050565b600082825260208201905092915050565b60005b8381101562000fee57808201518184015260208101905062000fd1565b60008484015250505050565b6000601f19601f8301169050919050565b6000620010188262000fb2565b62001024818562000fbd565b93506200103681856020860162000fce565b620010418162000ffa565b840191505092915050565b600060208201905081810360008301526200106881846200100b565b905092915050565b600080fd5b600080fd5b600073ffffffffffffffffffffffffffffffffffffffff82169050919050565b6000620010a7826200107a565b9050919050565b620010b9816200109a565b8114620010c557600080fd5b50565b600081359050620010d981620010ae565b92915050565b6000819050919050565b620010f481620010df565b81146200110057600080fd5b50565b6000813590506200111481620010e9565b92915050565b6000806040838503121562001134576200113362001070565b5b60006200114485828601620010c8565b9250506020620011578582860162001103565b9150509250929050565b60008115159050919050565b620011788162001161565b82525050565b60006020820190506200119560008301846200116d565b92915050565b620011a681620010df565b82525050565b6000602082019050620011c360008301846200119b565b92915050565b600080600060608486031215620011e557620011e462001070565b5b6000620011f586828701620010c8565b93505060206200120886828701620010c8565b92505060406200121b8682870162001103565b9150509250925092565b600060ff82169050919050565b6200123d8162001225565b82525050565b60006020820190506200125a600083018462001232565b92915050565b60006020828403121562001279576200127862001070565b5b60006200128984828501620010c8565b91505092915050565b6200129d816200109a565b82525050565b6000602082019050620012ba600083018462001292565b92915050565b600060208284031215620012d957620012d862001070565b5b6000620012e98482850162001103565b91505092915050565b600080604083850312156200130c576200130b62001070565b5b60006200131c85828601620010c8565b92505060206200132f85828601620010c8565b9150509250929050565b600080fd5b600080fd5b600080fd5b60008083601f84011262001361576200136062001339565b5b8235905067ffffffffffffffff8111156200138157620013806200133e565b5b602083019150836001820283011115620013a0576200139f62001343565b5b9250929050565b600080600060408486031215620013c357620013c262001070565b5b600084013567ffffffffffffffff811115620013e457620013e362001075565b5b620013f28682870162001348565b93509350506020620014078682870162001103565b9150509250925092565b7f4e487b7100000000000000000000000000000000000000000000000000000000600052602260045260246000fd5b600060028204905060018216806200145957607f821691505b6020821081036200146f576200146e62001411565b5b50919050565b60006040820190506200148c600083018562001292565b6200149b60208301846200119b565b9392505050565b7f496e76616c6964206f776e657221000000000000000000000000000000000000600082015250565b6000620014da600e8362000fbd565b9150620014e782620014a2565b602082019050919050565b600060208201905081810360008301526200150d81620014cb565b9050919050565b82818337600083830152505050565b600062001531838562000fbd565b93506200154083858462001514565b6200154b8362000ffa565b840190509392505050565b60006060820190506200156d600083018762001292565b81810360208301526200158281858762001523565b905062001593604083018462001292565b95945050505050565b6000606082019050620015b3600083018662001292565b620015c260208301856200119b565b620015d160408301846200119b565b949350505050565b7f4e487b7100000000000000000000000000000000000000000000000000000000600052601160045260246000fd5b60006200161582620010df565b91506200162283620010df565b92508282019050808211156200163d576200163c620015d9565b5b9291505056fe60a06040523480156200001157600080fd5b5060405162002e0438038062002e04833981810160405281019062000037919062000301565b6001600081905550600073ffffffffffffffffffffffffffffffffffffffff168173ffffffffffffffffffffffffffffffffffffffff16036200007957600080fd5b81600290816200008a9190620005c7565b5082600160006101000a81548173ffffffffffffffffffffffffffffffffffffffff021916908373ffffffffffffffffffffffffffffffffffffffff1602179055508073ffffffffffffffffffffffffffffffffffffffff1660808173ffffffffffffffffffffffffffffffffffffffff1681525050505050620006ae565b6000604051905090565b600080fd5b600080fd5b600073ffffffffffffffffffffffffffffffffffffffff82169050919050565b60006200014a826200011d565b9050919050565b6200015c816200013d565b81146200016857600080fd5b50565b6000815190506200017c8162000151565b92915050565b600080fd5b600080fd5b6000601f19601f8301169050919050565b7f4e487b7100000000000000000000000000000000000000000000000000000000600052604160045260246000fd5b620001d7826200018c565b810181811067ffffffffffffffff82111715620001f957620001f86200019d565b5b80604052505050565b60006200020e62000109565b90506200021c8282620001cc565b919050565b600067ffffffffffffffff8211156200023f576200023e6200019d565b5b6200024a826200018c565b9050602081019050919050565b60005b83811015620002775780820151818401526020810190506200025a565b60008484015250505050565b60006200029a620002948462000221565b62000202565b905082815260208101848484011115620002b957620002b862000187565b5b620002c684828562000257565b509392505050565b600082601f830112620002e657620002e562000182565b5b8151620002f884826020860162000283565b91505092915050565b6000806000606084860312156200031d576200031c62000113565b5b60006200032d868287016200016b565b935050602084015167ffffffffffffffff81111562000351576200035062000118565b5b6200035f86828701620002ce565b925050604062000372868287016200016b565b9150509250925092565b600081519050919050565b7f4e487b7100000000000000000000000000000000000000000000000000000000600052602260045260246000fd5b60006002820490506001821680620003cf57607f821691505b602082108103620003e557620003e462000387565b5b50919050565b60008190508160005260206000209050919050565b60006020601f8301049050919050565b600082821b905092915050565b6000600883026200044f7fffffffffffffffffffffffffffffffffffffffffffffffffffffffffffffffff8262000410565b6200045b868362000410565b95508019841693508086168417925050509392505050565b6000819050919050565b6000819050919050565b6000620004a8620004a26200049c8462000473565b6200047d565b62000473565b9050919050565b6000819050919050565b620004c48362000487565b620004dc620004d382620004af565b8484546200041d565b825550505050565b600090565b620004f3620004e4565b62000500818484620004b9565b505050565b5b8181101562000528576200051c600082620004e9565b60018101905062000506565b5050565b601f82111562000577576200054181620003eb565b6200054c8462000400565b810160208510156200055c578190505b620005746200056b8562000400565b83018262000505565b50505b505050565b600082821c905092915050565b60006200059c600019846008026200057c565b1980831691505092915050565b6000620005b7838362000589565b9150826002028217905092915050565b620005d2826200037c565b67ffffffffffffffff811115620005ee57620005ed6200019d565b5b620005fa8254620003b6565b620006078282856200052c565b600060209050601f8311600181146200063f57600084156200062a578287015190505b620006368582620005a9565b865550620006a6565b601f1984166200064f86620003eb565b60005b82811015620006795784890151825560018201915060208501945060208101905062000652565b8683101562000699578489015162000695601f89168262000589565b8355505b6001600288020188555050505b505050505050565b608051612725620006df6000396000818161095c01528181610a6501528181610e1e015261107701526127256000f3fe60806040526004361061010d5760003560e01c80638af104da11610095578063b75c7dc611610064578063b75c7dc614610387578063ea1bb3d5146103b0578063f51321d7146103ed578063f7c469f01461042a578063f9079b371461046757610114565b80638af104da146102b75780638da5cb5b146102f457806390be10cc1461031f5780639ef346b41461034a57610114565b80632e1a7d4d116100dc5780632e1a7d4d146101c057806348deb471146101e95780635a7bb69a1461021457806366afd8ef146102515780637e913dc61461027a57610114565b806306fdde0314610116578063130836171461014157806317e289e91461016c57806321df0da71461019557610114565b3661011457005b005b34801561012257600080fd5b5061012b6104a4565b60405161013891906118c7565b60405180910390f35b34801561014d57600080fd5b50610156610532565b6040516101639190611902565b60405180910390f35b34801561017857600080fd5b50610193600480360381019061018e91906119e4565b61053f565b005b3480156101a157600080fd5b506101aa610958565b6040516101b79190611a95565b60405180910390f35b3480156101cc57600080fd5b506101e760048036038101906101e29190611ab0565b610980565b005b3480156101f557600080fd5b506101fe610b0e565b60405161020b9190611902565b60405180910390f35b34801561022057600080fd5b5061023b60048036038101906102369190611add565b610b18565b6040516102489190611902565b60405180910390f35b34801561025d57600080fd5b5061027860048036038101906102739190611b40565b610b61565b005b34801561028657600080fd5b506102a1600480360381019061029c9190611add565b610ecd565b6040516102ae9190611c64565b60405180910390f35b3480156102c357600080fd5b506102de60048036038101906102d99190611c80565b611017565b6040516102eb9190611ccf565b60405180910390f35b34801561030057600080fd5b5061030961104a565b6040516103169190611a95565b60405180910390f35b34801561032b57600080fd5b50610334611070565b6040516103419190611902565b60405180910390f35b34801561035657600080fd5b50610371600480360381019061036c9190611cea565b61111e565b60405161037e9190611c64565b60405180910390f35b34801561039357600080fd5b506103ae60048036038101906103a99190611cea565b611214565b005b3480156103bc57600080fd5b506103d760048036038101906103d29190611cea565b611482565b6040516103e49190611902565b60405180910390f35b3480156103f957600080fd5b50610414600480360381019061040f9190611c80565b6115b0565b6040516104219190611c64565b60405180910390f35b34801561043657600080fd5b50610451600480360381019061044c9190611add565b6115d2565b60405161045e9190611ccf565b60405180910390f35b34801561047357600080fd5b5061048e60048036038101906104899190611ab0565b611624565b60405161049b9190611ccf565b60405180910390f35b600280546104b190611d46565b80601f01602080910402602001604051908101604052809291908181526020018280546104dd90611d46565b801561052a5780601f106104ff5761010080835404028352916020019161052a565b820191906000526020600020905b81548152906001019060200180831161050d57829003601f168201915b505050505081565b6000600380549050905090565b600160009054906101000a900473ffffffffffffffffffffffffffffffffffffffff163373ffffffffffffffffffffffffffffffffffffffff168173ffffffffffffffffffffffffffffffffffffffff16146105d0576040517f08c379a00000000000000000000000000000000000000000000000000000000081526004016105c790611dc3565b60405180910390fd5b816105d9611070565b101561061a576040517f08c379a000000000000000000000000000000000000000000000000000000000815260040161061190611e7b565b60405180910390fd5b6000851161065d576040517f08c379a000000000000000000000000000000000000000000000000000000000815260040161065490611f0d565b60405180910390fd5b600082116106a0576040517f08c379a000000000000000000000000000000000000000000000000000000000815260040161069790611f79565b60405180910390fd5b60018410156106e4576040517f08c379a00000000000000000000000000000000000000000000000000000000081526004016106db9061200b565b60405180910390fd5b85851015610727576040517f08c379a000000000000000000000000000000000000000000000000000000000815260040161071e9061209d565b60405180910390fd5b6000610732896115d2565b90506000878961074291906120ec565b90506040518061012001604052808b73ffffffffffffffffffffffffffffffffffffffff1681526020018281526020018a8152602001888152602001878152602001861515815260200185815260200160008152602001600015158152506004600084815260200190815260200160002060008201518160000160006101000a81548173ffffffffffffffffffffffffffffffffffffffff021916908373ffffffffffffffffffffffffffffffffffffffff1602179055506020820151816001015560408201518160020155606082015181600301556080820151816004015560a08201518160050160006101000a81548160ff02191690831515021790555060c0820151816006015560e082015181600701556101008201518160080160006101000a81548160ff0219169083151502179055509050508360055461088891906120ec565b60058190555060038290806001815401808255809150506001900390600052602060002001600090919091909150556000600660008c73ffffffffffffffffffffffffffffffffffffffff1673ffffffffffffffffffffffffffffffffffffffff16815260200190815260200160002054905060018161090891906120ec565b600660008d73ffffffffffffffffffffffffffffffffffffffff1673ffffffffffffffffffffffffffffffffffffffff168152602001908152602001600020819055505050505050505050505050565b60007f0000000000000000000000000000000000000000000000000000000000000000905090565b610988611695565b600160009054906101000a900473ffffffffffffffffffffffffffffffffffffffff163373ffffffffffffffffffffffffffffffffffffffff168173ffffffffffffffffffffffffffffffffffffffff1614610a19576040517f08c379a0000000000000000000000000000000000000000000000000000000008152600401610a1090611dc3565b60405180910390fd5b81610a22611070565b1015610a63576040517f08c379a0000000000000000000000000000000000000000000000000000000008152600401610a5a90612192565b60405180910390fd5b7f000000000000000000000000000000000000000000000000000000000000000073ffffffffffffffffffffffffffffffffffffffff1663a9059cbb33846040518363ffffffff1660e01b8152600401610abe9291906121b2565b6020604051808303816000875af1158015610add573d6000803e3d6000fd5b505050506040513d601f19601f82011682018060405250810190610b0191906121f0565b5050610b0b6116db565b50565b6000600554905090565b6000600660008373ffffffffffffffffffffffffffffffffffffffff1673ffffffffffffffffffffffffffffffffffffffff168152602001908152602001600020549050919050565b610b69611695565b816004600082815260200190815260200160002060080160009054906101000a900460ff1615610b9857600080fd5b600060046000858152602001908152602001600020905060008160000160009054906101000a900473ffffffffffffffffffffffffffffffffffffffff1673ffffffffffffffffffffffffffffffffffffffff163373ffffffffffffffffffffffffffffffffffffffff161490506000600160009054906101000a900473ffffffffffffffffffffffffffffffffffffffff1673ffffffffffffffffffffffffffffffffffffffff163373ffffffffffffffffffffffffffffffffffffffff161490508180610c645750805b610ca3576040517f08c379a0000000000000000000000000000000000000000000000000000000008152600401610c9a906122b5565b60405180910390fd5b6000610d8284604051806101200160405290816000820160009054906101000a900473ffffffffffffffffffffffffffffffffffffffff1673ffffffffffffffffffffffffffffffffffffffff1673ffffffffffffffffffffffffffffffffffffffff168152602001600182015481526020016002820154815260200160038201548152602001600482015481526020016005820160009054906101000a900460ff1615151515815260200160068201548152602001600782015481526020016008820160009054906101000a900460ff1615151515815250506116e5565b905085811015610dc7576040517f08c379a0000000000000000000000000000000000000000000000000000000008152600401610dbe90612347565b60405180910390fd5b858460070154610dd791906120ec565b846007018190555060008460000160009054906101000a900473ffffffffffffffffffffffffffffffffffffffff16905086600554610e169190612367565b6005819055507f000000000000000000000000000000000000000000000000000000000000000073ffffffffffffffffffffffffffffffffffffffff1663a9059cbb82896040518363ffffffff1660e01b8152600401610e779291906123fa565b6020604051808303816000875af1158015610e96573d6000803e3d6000fd5b505050506040513d601f19601f82011682018060405250810190610eba91906121f0565b50505050505050610ec96116db565b5050565b610ed56117d1565b60046000610f2e846001600660008873ffffffffffffffffffffffffffffffffffffffff1673ffffffffffffffffffffffffffffffffffffffff16815260200190815260200160002054610f299190612367565b611017565b8152602001908152602001600020604051806101200160405290816000820160009054906101000a900473ffffffffffffffffffffffffffffffffffffffff1673ffffffffffffffffffffffffffffffffffffffff1673ffffffffffffffffffffffffffffffffffffffff168152602001600182015481526020016002820154815260200160038201548152602001600482015481526020016005820160009054906101000a900460ff1615151515815260200160068201548152602001600782015481526020016008820160009054906101000a900460ff1615151515815250509050919050565b6000828260405160200161102c92919061248c565b60405160208183030381529060405280519060200120905092915050565b600160009054906101000a900473ffffffffffffffffffffffffffffffffffffffff1681565b60006005547f000000000000000000000000000000000000000000000000000000000000000073ffffffffffffffffffffffffffffffffffffffff166370a08231306040518263ffffffff1660e01b81526004016110ce9190611a95565b602060405180830381865afa1580156110eb573d6000803e3d6000fd5b505050506040513d601f19601f8201168201806040525081019061110f91906124cd565b6111199190612367565b905090565b6111266117d1565b60046000838152602001908152602001600020604051806101200160405290816000820160009054906101000a900473ffffffffffffffffffffffffffffffffffffffff1673ffffffffffffffffffffffffffffffffffffffff1673ffffffffffffffffffffffffffffffffffffffff168152602001600182015481526020016002820154815260200160038201548152602001600482015481526020016005820160009054906101000a900460ff1615151515815260200160068201548152602001600782015481526020016008820160009054906101000a900460ff1615151515815250509050919050565b600160009054906101000a900473ffffffffffffffffffffffffffffffffffffffff163373ffffffffffffffffffffffffffffffffffffffff168173ffffffffffffffffffffffffffffffffffffffff16146112a5576040517f08c379a000000000000000000000000000000000000000000000000000000000815260040161129c90611dc3565b60405180910390fd5b816004600082815260200190815260200160002060080160009054906101000a900460ff16156112d457600080fd5b60006004600085815260200190815260200160002090508060050160009054906101000a900460ff1661133c576040517f08c379a00000000000000000000000000000000000000000000000000000000081526004016113339061256c565b60405180910390fd5b600061141b82604051806101200160405290816000820160009054906101000a900473ffffffffffffffffffffffffffffffffffffffff1673ffffffffffffffffffffffffffffffffffffffff1673ffffffffffffffffffffffffffffffffffffffff168152602001600182015481526020016002820154815260200160038201548152602001600482015481526020016005820160009054906101000a900460ff1615151515815260200160068201548152602001600782015481526020016008820160009054906101000a900460ff1615151515815250506116e5565b90506000811115611431576114308582610b61565b5b6000826007015483600601546114479190612367565b9050806005546114579190612367565b60058190555060018360080160006101000a81548160ff021916908315150217905550505050505050565b6000816004600082815260200190815260200160002060080160009054906101000a900460ff16156114b357600080fd5b60006004600085815260200190815260200160002090506115a781604051806101200160405290816000820160009054906101000a900473ffffffffffffffffffffffffffffffffffffffff1673ffffffffffffffffffffffffffffffffffffffff1673ffffffffffffffffffffffffffffffffffffffff168152602001600182015481526020016002820154815260200160038201548152602001600482015481526020016005820160009054906101000a900460ff1615151515815260200160068201548152602001600782015481526020016008820160009054906101000a900460ff1615151515815250506116e5565b92505050919050565b6115b86117d1565b6115ca6115c58484611017565b61111e565b905092915050565b600061161d82600660008573ffffffffffffffffffffffffffffffffffffffff1673ffffffffffffffffffffffffffffffffffffffff16815260200190815260200160002054611017565b9050919050565b600061162e610532565b821061166f576040517f08c379a0000000000000000000000000000000000000000000000000000000008152600401611666906125fe565b60405180910390fd5b600382815481106116835761168261261e565b5b90600052602060002001549050919050565b6002600054036116d1576040517f3ee5aeb500000000000000000000000000000000000000000000000000000000815260040160405180910390fd5b6002600081905550565b6001600081905550565b6000806116f06117c9565b9050826020015181108061170657508261010001515b156117155760009150506117c4565b8260600151836020015161172991906120ec565b811061174b578260e001518360c001516117439190612367565b9150506117c4565b600083602001518261175d9190612367565b905060008460800151905060008183611776919061267c565b90506000828261178691906126ad565b905060008760600151828960c0015161179f91906126ad565b6117a9919061267c565b90508760e00151816117bb9190612367565b96505050505050505b919050565b600042905090565b604051806101200160405280600073ffffffffffffffffffffffffffffffffffffffff1681526020016000815260200160008152602001600081526020016000815260200160001515815260200160008152602001600081526020016000151581525090565b600081519050919050565b600082825260208201905092915050565b60005b83811015611871578082015181840152602081019050611856565b60008484015250505050565b6000601f19601f8301169050919050565b600061189982611837565b6118a38185611842565b93506118b3818560208601611853565b6118bc8161187d565b840191505092915050565b600060208201905081810360008301526118e1818461188e565b905092915050565b6000819050919050565b6118fc816118e9565b82525050565b600060208201905061191760008301846118f3565b92915050565b600080fd5b600073ffffffffffffffffffffffffffffffffffffffff82169050919050565b600061194d82611922565b9050919050565b61195d81611942565b811461196857600080fd5b50565b60008135905061197a81611954565b92915050565b611989816118e9565b811461199457600080fd5b50565b6000813590506119a681611980565b92915050565b60008115159050919050565b6119c1816119ac565b81146119cc57600080fd5b50565b6000813590506119de816119b8565b92915050565b600080600080600080600060e0888a031215611a0357611a0261191d565b5b6000611a118a828b0161196b565b9750506020611a228a828b01611997565b9650506040611a338a828b01611997565b9550506060611a448a828b01611997565b9450506080611a558a828b01611997565b93505060a0611a668a828b016119cf565b92505060c0611a778a828b01611997565b91505092959891949750929550565b611a8f81611942565b82525050565b6000602082019050611aaa6000830184611a86565b92915050565b600060208284031215611ac657611ac561191d565b5b6000611ad484828501611997565b91505092915050565b600060208284031215611af357611af261191d565b5b6000611b018482850161196b565b91505092915050565b6000819050919050565b611b1d81611b0a565b8114611b2857600080fd5b50565b600081359050611b3a81611b14565b92915050565b60008060408385031215611b5757611b5661191d565b5b6000611b6585828601611b2b565b9250506020611b7685828601611997565b9150509250929050565b611b8981611942565b82525050565b611b98816118e9565b82525050565b611ba7816119ac565b82525050565b61012082016000820151611bc46000850182611b80565b506020820151611bd76020850182611b8f565b506040820151611bea6040850182611b8f565b506060820151611bfd6060850182611b8f565b506080820151611c106080850182611b8f565b5060a0820151611c2360a0850182611b9e565b5060c0820151611c3660c0850182611b8f565b5060e0820151611c4960e0850182611b8f565b50610100820151611c5e610100850182611b9e565b50505050565b600061012082019050611c7a6000830184611bad565b92915050565b60008060408385031215611c9757611c9661191d565b5b6000611ca58582860161196b565b9250506020611cb685828601611997565b9150509250929050565b611cc981611b0a565b82525050565b6000602082019050611ce46000830184611cc0565b92915050565b600060208284031215611d0057611cff61191d565b5b6000611d0e84828501611b2b565b91505092915050565b7f4e487b7100000000000000000000000000000000000000000000000000000000600052602260045260246000fd5b60006002820490506001821680611d5e57607f821691505b602082108103611d7157611d70611d17565b5b50919050565b7f496e76616c6964206f776e657221000000000000000000000000000000000000600082015250565b6000611dad600e83611842565b9150611db882611d77565b602082019050919050565b60006020820190508181036000830152611ddc81611da0565b9050919050565b7f546f6b656e56657374696e673a2063616e6e6f7420637265617465207665737460008201527f696e67207363686564756c652062656361757365206e6f74207375666669636960208201527f656e7420746f6b656e7300000000000000000000000000000000000000000000604082015250565b6000611e65604a83611842565b9150611e7082611de3565b606082019050919050565b60006020820190508181036000830152611e9481611e58565b9050919050565b7f546f6b656e56657374696e673a206475726174696f6e206d757374206265203e60008201527f2030000000000000000000000000000000000000000000000000000000000000602082015250565b6000611ef7602283611842565b9150611f0282611e9b565b604082019050919050565b60006020820190508181036000830152611f2681611eea565b9050919050565b7f546f6b656e56657374696e673a20616d6f756e74206d757374206265203e2030600082015250565b6000611f63602083611842565b9150611f6e82611f2d565b602082019050919050565b60006020820190508181036000830152611f9281611f56565b9050919050565b7f546f6b656e56657374696e673a20736c696365506572696f645365636f6e647360008201527f206d757374206265203e3d203100000000000000000000000000000000000000602082015250565b6000611ff5602d83611842565b915061200082611f99565b604082019050919050565b6000602082019050818103600083015261202481611fe8565b9050919050565b7f546f6b656e56657374696e673a206475726174696f6e206d757374206265203e60008201527f3d20636c69666600000000000000000000000000000000000000000000000000602082015250565b6000612087602783611842565b91506120928261202b565b604082019050919050565b600060208201905081810360008301526120b68161207a565b9050919050565b7f4e487b7100000000000000000000000000000000000000000000000000000000600052601160045260246000fd5b60006120f7826118e9565b9150612102836118e9565b925082820190508082111561211a576121196120bd565b5b92915050565b7f546f6b656e56657374696e673a206e6f7420656e6f756768207769746864726160008201527f7761626c652066756e6473000000000000000000000000000000000000000000602082015250565b600061217c602b83611842565b915061218782612120565b604082019050919050565b600060208201905081810360008301526121ab8161216f565b9050919050565b60006040820190506121c76000830185611a86565b6121d460208301846118f3565b9392505050565b6000815190506121ea816119b8565b92915050565b6000602082840312156122065761220561191d565b5b6000612214848285016121db565b91505092915050565b7f546f6b656e56657374696e673a206f6e6c792062656e6566696369617279206160008201527f6e64206f776e65722063616e2072656c656173652076657374656420746f6b6560208201527f6e73000000000000000000000000000000000000000000000000000000000000604082015250565b600061229f604283611842565b91506122aa8261221d565b606082019050919050565b600060208201905081810360008301526122ce81612292565b9050919050565b7f546f6b656e56657374696e673a2063616e6e6f742072656c6561736520746f6b60008201527f656e732c206e6f7420656e6f7567682076657374656420746f6b656e73000000602082015250565b6000612331603d83611842565b915061233c826122d5565b604082019050919050565b6000602082019050818103600083015261236081612324565b9050919050565b6000612372826118e9565b915061237d836118e9565b9250828203905081811115612395576123946120bd565b5b92915050565b6000819050919050565b60006123c06123bb6123b684611922565b61239b565b611922565b9050919050565b60006123d2826123a5565b9050919050565b60006123e4826123c7565b9050919050565b6123f4816123d9565b82525050565b600060408201905061240f60008301856123eb565b61241c60208301846118f3565b9392505050565b60008160601b9050919050565b600061243b82612423565b9050919050565b600061244d82612430565b9050919050565b61246561246082611942565b612442565b82525050565b6000819050919050565b612486612481826118e9565b61246b565b82525050565b60006124988285612454565b6014820191506124a88284612475565b6020820191508190509392505050565b6000815190506124c781611980565b92915050565b6000602082840312156124e3576124e261191d565b5b60006124f1848285016124b8565b91505092915050565b7f546f6b656e56657374696e673a2076657374696e67206973206e6f742072657660008201527f6f6361626c650000000000000000000000000000000000000000000000000000602082015250565b6000612556602683611842565b9150612561826124fa565b604082019050919050565b6000602082019050818103600083015261258581612549565b9050919050565b7f546f6b656e56657374696e673a20696e646578206f7574206f6620626f756e6460008201527f7300000000000000000000000000000000000000000000000000000000000000602082015250565b60006125e8602183611842565b91506125f38261258c565b604082019050919050565b60006020820190508181036000830152612617816125db565b9050919050565b7f4e487b7100000000000000000000000000000000000000000000000000000000600052603260045260246000fd5b7f4e487b7100000000000000000000000000000000000000000000000000000000600052601260045260246000fd5b6000612687826118e9565b9150612692836118e9565b9250826126a2576126a161264d565b5b828204905092915050565b60006126b8826118e9565b91506126c3836118e9565b92508282026126d1816118e9565b915082820484148315176126e8576126e76120bd565b5b509291505056fea2646970667358221220c74436dda1a6abae72cf03c8b74490039880cca85c60fef7e1fb35174b97bcbc64736f6c63430008180033a26469706673582212208c8632b83541e133a57029a3a5a5341c9ca49ee7bcfc37510f8e16053458d02464736f6c63430008180033",
  "linkReferences": {},
  "deployedLinkReferences": {}
}