{
  "_format": "hh-sol-artifact-1",
  "contractName": "Project",
  "sourceName": "contracts/Project.sol",
  "abi": [
    {
      "inputs": [
        {
          "internalType": "address",
          "name": "_owner",
          "type": "address"
        },
        {
          "internalType": "address",
          "name": "_token",
          "type": "address"
        },
        {
          "internalType": "string",
          "name": "_name",
          "type": "string"
        },
        {
          "internalType": "string",
          "name": "_location",
          "type": "string"
        },
        {
          "internalType": "string",
          "name": "_description",
          "type": "string"
        },
        {
          "internalType": "uint256",
          "name": "_totalBalance",
          "type": "uint256"
        }
      ],
      "stateMutability": "nonpayable",
      "type": "constructor"
    },
    {
      "inputs": [],
      "name": "ReentrancyGuardReentrantCall",
      "type": "error"
    },
    {
      "inputs": [
        {
          "internalType": "uint256",
          "name": "amount",
          "type": "uint256"
        }
      ],
      "name": "addProfit",
      "outputs": [],
      "stateMutability": "nonpayable",
      "type": "function"
    },
    {
      "inputs": [
        {
          "internalType": "address",
          "name": "",
          "type": "address"
        }
      ],
      "name": "balances",
      "outputs": [
        {
          "internalType": "uint256",
          "name": "",
          "type": "uint256"
        }
      ],
      "stateMutability": "view",
      "type": "function"
    },
    {
      "inputs": [],
      "name": "description",
      "outputs": [
        {
          "internalType": "string",
          "name": "",
          "type": "string"
        }
      ],
      "stateMutability": "view",
      "type": "function"
    },
    {
      "inputs": [],
      "name": "distributeProfit",
      "outputs": [],
      "stateMutability": "nonpayable",
      "type": "function"
    },
    {
      "inputs": [
        {
          "internalType": "address",
          "name": "",
          "type": "address"
        }
      ],
      "name": "isStaker",
      "outputs": [
        {
          "internalType": "bool",
          "name": "",
          "type": "bool"
        }
      ],
      "stateMutability": "view",
      "type": "function"
    },
    {
      "inputs": [],
      "name": "location",
      "outputs": [
        {
          "internalType": "string",
          "name": "",
          "type": "string"
        }
      ],
      "stateMutability": "view",
      "type": "function"
    },
    {
      "inputs": [],
      "name": "name",
      "outputs": [
        {
          "internalType": "string",
          "name": "",
          "type": "string"
        }
      ],
      "stateMutability": "view",
      "type": "function"
    },
    {
      "inputs": [],
      "name": "operationPercent",
      "outputs": [
        {
          "internalType": "uint256",
          "name": "",
          "type": "uint256"
        }
      ],
      "stateMutability": "view",
      "type": "function"
    },
    {
      "inputs": [],
      "name": "profit",
      "outputs": [
        {
          "internalType": "uint256",
          "name": "",
          "type": "uint256"
        }
      ],
      "stateMutability": "view",
      "type": "function"
    },
    {
      "inputs": [
        {
          "internalType": "address",
          "name": "",
          "type": "address"
        }
      ],
      "name": "rewards",
      "outputs": [
        {
          "internalType": "uint256",
          "name": "",
          "type": "uint256"
        }
      ],
      "stateMutability": "view",
      "type": "function"
    },
    {
      "inputs": [
        {
          "internalType": "uint256",
          "name": "",
          "type": "uint256"
        }
      ],
      "name": "stakers",
      "outputs": [
        {
          "internalType": "address",
          "name": "",
          "type": "address"
        }
      ],
      "stateMutability": "view",
      "type": "function"
    },
    {
      "inputs": [],
      "name": "token",
      "outputs": [
        {
          "internalType": "address",
          "name": "",
          "type": "address"
        }
      ],
      "stateMutability": "view",
      "type": "function"
    },
    {
      "inputs": [],
      "name": "totalBalance",
      "outputs": [
        {
          "internalType": "uint256",
          "name": "",
          "type": "uint256"
        }
      ],
      "stateMutability": "view",
      "type": "function"
    },
    {
      "inputs": [
        {
          "internalType": "address",
          "name": "to",
          "type": "address"
        },
        {
          "internalType": "uint256",
          "name": "amount",
          "type": "uint256"
        }
      ],
      "name": "transfer",
      "outputs": [],
      "stateMutability": "nonpayable",
      "type": "function"
    },
    {
      "inputs": [],
      "name": "withdraw",
      "outputs": [],
      "stateMutability": "nonpayable",
      "type": "function"
    }
  ],
  "bytecode": "0x60806040523480156200001157600080fd5b506040516200197f3803806200197f833981810160405281019062000037919062000381565b600160008190555085600460006101000a81548173ffffffffffffffffffffffffffffffffffffffff021916908373ffffffffffffffffffffffffffffffffffffffff16021790555084600560006101000a81548173ffffffffffffffffffffffffffffffffffffffff021916908373ffffffffffffffffffffffffffffffffffffffff1602179055508360069081620000d29190620006bb565b508260079081620000e49190620006bb565b508160089081620000f69190620006bb565b508060018190555080600960003073ffffffffffffffffffffffffffffffffffffffff1673ffffffffffffffffffffffffffffffffffffffff16815260200190815260200160002081905550505050505050620007a2565b6000604051905090565b600080fd5b600080fd5b600073ffffffffffffffffffffffffffffffffffffffff82169050919050565b60006200018f8262000162565b9050919050565b620001a18162000182565b8114620001ad57600080fd5b50565b600081519050620001c18162000196565b92915050565b600080fd5b600080fd5b6000601f19601f8301169050919050565b7f4e487b7100000000000000000000000000000000000000000000000000000000600052604160045260246000fd5b6200021c82620001d1565b810181811067ffffffffffffffff821117156200023e576200023d620001e2565b5b80604052505050565b6000620002536200014e565b905062000261828262000211565b919050565b600067ffffffffffffffff821115620002845762000283620001e2565b5b6200028f82620001d1565b9050602081019050919050565b60005b83811015620002bc5780820151818401526020810190506200029f565b60008484015250505050565b6000620002df620002d98462000266565b62000247565b905082815260208101848484011115620002fe57620002fd620001cc565b5b6200030b8482856200029c565b509392505050565b600082601f8301126200032b576200032a620001c7565b5b81516200033d848260208601620002c8565b91505092915050565b6000819050919050565b6200035b8162000346565b81146200036757600080fd5b50565b6000815190506200037b8162000350565b92915050565b60008060008060008060c08789031215620003a157620003a062000158565b5b6000620003b189828a01620001b0565b9650506020620003c489828a01620001b0565b955050604087015167ffffffffffffffff811115620003e857620003e76200015d565b5b620003f689828a0162000313565b945050606087015167ffffffffffffffff8111156200041a57620004196200015d565b5b6200042889828a0162000313565b935050608087015167ffffffffffffffff8111156200044c576200044b6200015d565b5b6200045a89828a0162000313565b92505060a06200046d89828a016200036a565b9150509295509295509295565b600081519050919050565b7f4e487b7100000000000000000000000000000000000000000000000000000000600052602260045260246000fd5b60006002820490506001821680620004cd57607f821691505b602082108103620004e357620004e262000485565b5b50919050565b60008190508160005260206000209050919050565b60006020601f8301049050919050565b600082821b905092915050565b6000600883026200054d7fffffffffffffffffffffffffffffffffffffffffffffffffffffffffffffffff826200050e565b6200055986836200050e565b95508019841693508086168417925050509392505050565b6000819050919050565b60006200059c62000596620005908462000346565b62000571565b62000346565b9050919050565b6000819050919050565b620005b8836200057b565b620005d0620005c782620005a3565b8484546200051b565b825550505050565b600090565b620005e7620005d8565b620005f4818484620005ad565b505050565b5b818110156200061c5762000610600082620005dd565b600181019050620005fa565b5050565b601f8211156200066b576200063581620004e9565b6200064084620004fe565b8101602085101562000650578190505b620006686200065f85620004fe565b830182620005f9565b50505b505050565b600082821c905092915050565b6000620006906000198460080262000670565b1980831691505092915050565b6000620006ab83836200067d565b9150826002028217905092915050565b620006c6826200047a565b67ffffffffffffffff811115620006e257620006e1620001e2565b5b620006ee8254620004b4565b620006fb82828562000620565b600060209050601f8311600181146200073357600084156200071e578287015190505b6200072a85826200069d565b8655506200079a565b601f1984166200074386620004e9565b60005b828110156200076d5784890151825560018201915060208501945060208101905062000746565b868310156200078d578489015162000789601f8916826200067d565b8355505b6001600288020188555050505b505050505050565b6111cd80620007b26000396000f3fe608060405234801561001057600080fd5b50600436106100f55760003560e01c80636f1e853311610097578063a9059cbb11610066578063a9059cbb14610250578063ad7a672f1461026c578063fc0c546a1461028a578063fd5e6dd1146102a8576100f5565b80636f1e8533146101dc5780637284e4161461020c5780638a160b541461022a5780638d2868d814610234576100f5565b80633ccfd60b116100d35780633ccfd60b14610178578063516f279e146101825780635dd54740146101a057806366d16cc3146101be576100f5565b806306fdde03146100fa5780630700037d1461011857806327e235e314610148575b600080fd5b6101026102d8565b60405161010f9190610c96565b60405180910390f35b610132600480360381019061012d9190610d1b565b610366565b60405161013f9190610d61565b60405180910390f35b610162600480360381019061015d9190610d1b565b61037e565b60405161016f9190610d61565b60405180910390f35b610180610396565b005b61018a6104d8565b6040516101979190610c96565b60405180910390f35b6101a8610566565b6040516101b59190610d61565b60405180910390f35b6101c661056c565b6040516101d39190610d61565b60405180910390f35b6101f660048036038101906101f19190610d1b565b610572565b6040516102039190610d97565b60405180910390f35b610214610592565b6040516102219190610c96565b60405180910390f35b610232610620565b005b61024e60048036038101906102499190610dde565b6107e7565b005b61026a60048036038101906102659190610e0b565b610803565b005b610274610b4b565b6040516102819190610d61565b60405180910390f35b610292610b51565b60405161029f9190610e5a565b60405180910390f35b6102c260048036038101906102bd9190610dde565b610b77565b6040516102cf9190610e5a565b60405180910390f35b600680546102e590610ea4565b80601f016020809104026020016040519081016040528092919081815260200182805461031190610ea4565b801561035e5780601f106103335761010080835404028352916020019161035e565b820191906000526020600020905b81548152906001019060200180831161034157829003601f168201915b505050505081565b600a6020528060005260406000206000915090505481565b60096020528060005260406000206000915090505481565b61039e610bb6565b6000600560009054906101000a900473ffffffffffffffffffffffffffffffffffffffff1673ffffffffffffffffffffffffffffffffffffffff1663a9059cbb33600a60003373ffffffffffffffffffffffffffffffffffffffff1673ffffffffffffffffffffffffffffffffffffffff168152602001908152602001600020546040518363ffffffff1660e01b815260040161043c929190610ed5565b6020604051808303816000875af115801561045b573d6000803e3d6000fd5b505050506040513d601f19601f8201168201806040525081019061047f9190610f2a565b905080156104cd576000600a60003373ffffffffffffffffffffffffffffffffffffffff1673ffffffffffffffffffffffffffffffffffffffff168152602001908152602001600020819055505b506104d6610bfc565b565b600780546104e590610ea4565b80601f016020809104026020016040519081016040528092919081815260200182805461051190610ea4565b801561055e5780601f106105335761010080835404028352916020019161055e565b820191906000526020600020905b81548152906001019060200180831161054157829003601f168201915b505050505081565b60035481565b60025481565b600b6020528060005260406000206000915054906101000a900460ff1681565b6008805461059f90610ea4565b80601f01602080910402602001604051908101604052809291908181526020018280546105cb90610ea4565b80156106185780601f106105ed57610100808354040283529160200191610618565b820191906000526020600020905b8154815290600101906020018083116105fb57829003601f168201915b505050505081565b600080600080600090505b600c8054905081101561074657600c818154811061064c5761064b610f57565b5b9060005260206000200160009054906101000a900473ffffffffffffffffffffffffffffffffffffffff169150600154600254600960008573ffffffffffffffffffffffffffffffffffffffff1673ffffffffffffffffffffffffffffffffffffffff168152602001908152602001600020546106c99190610fb5565b6106d39190611026565b935083600a60008473ffffffffffffffffffffffffffffffffffffffff1673ffffffffffffffffffffffffffffffffffffffff16815260200190815260200160002060008282546107249190611057565b9250508190555083836107379190611057565b9250808060010191505061062b565b508160026000828254610759919061108b565b92505081905550600254600a6000600460009054906101000a900473ffffffffffffffffffffffffffffffffffffffff1673ffffffffffffffffffffffffffffffffffffffff1673ffffffffffffffffffffffffffffffffffffffff16815260200190815260200160002060008282546107d39190611057565b925050819055506000600281905550505050565b80600260008282546107f99190611057565b9250508190555050565b600560009054906101000a900473ffffffffffffffffffffffffffffffffffffffff163373ffffffffffffffffffffffffffffffffffffffff168173ffffffffffffffffffffffffffffffffffffffff1614610894576040517f08c379a000000000000000000000000000000000000000000000000000000000815260040161088b9061110b565b60405180910390fd5b600960003073ffffffffffffffffffffffffffffffffffffffff1673ffffffffffffffffffffffffffffffffffffffff168152602001908152602001600020548210610915576040517f08c379a000000000000000000000000000000000000000000000000000000000815260040161090c90611177565b60405180910390fd5b81600960003073ffffffffffffffffffffffffffffffffffffffff1673ffffffffffffffffffffffffffffffffffffffff1681526020019081526020016000206000828254610964919061108b565b9250508190555081600960008573ffffffffffffffffffffffffffffffffffffffff1673ffffffffffffffffffffffffffffffffffffffff16815260200190815260200160002060008282546109ba9190611057565b9250508190555081600a6000600460009054906101000a900473ffffffffffffffffffffffffffffffffffffffff1673ffffffffffffffffffffffffffffffffffffffff1673ffffffffffffffffffffffffffffffffffffffff1681526020019081526020016000206000828254610a329190611057565b92505081905550600b60008473ffffffffffffffffffffffffffffffffffffffff1673ffffffffffffffffffffffffffffffffffffffff16815260200190815260200160002060009054906101000a900460ff16610b46576001600b60008573ffffffffffffffffffffffffffffffffffffffff1673ffffffffffffffffffffffffffffffffffffffff16815260200190815260200160002060006101000a81548160ff021916908315150217905550600c839080600181540180825580915050600190039060005260206000200160009091909190916101000a81548173ffffffffffffffffffffffffffffffffffffffff021916908373ffffffffffffffffffffffffffffffffffffffff1602179055505b505050565b60015481565b600560009054906101000a900473ffffffffffffffffffffffffffffffffffffffff1681565b600c8181548110610b8757600080fd5b906000526020600020016000915054906101000a900473ffffffffffffffffffffffffffffffffffffffff1681565b600260005403610bf2576040517f3ee5aeb500000000000000000000000000000000000000000000000000000000815260040160405180910390fd5b6002600081905550565b6001600081905550565b600081519050919050565b600082825260208201905092915050565b60005b83811015610c40578082015181840152602081019050610c25565b60008484015250505050565b6000601f19601f8301169050919050565b6000610c6882610c06565b610c728185610c11565b9350610c82818560208601610c22565b610c8b81610c4c565b840191505092915050565b60006020820190508181036000830152610cb08184610c5d565b905092915050565b600080fd5b600073ffffffffffffffffffffffffffffffffffffffff82169050919050565b6000610ce882610cbd565b9050919050565b610cf881610cdd565b8114610d0357600080fd5b50565b600081359050610d1581610cef565b92915050565b600060208284031215610d3157610d30610cb8565b5b6000610d3f84828501610d06565b91505092915050565b6000819050919050565b610d5b81610d48565b82525050565b6000602082019050610d766000830184610d52565b92915050565b60008115159050919050565b610d9181610d7c565b82525050565b6000602082019050610dac6000830184610d88565b92915050565b610dbb81610d48565b8114610dc657600080fd5b50565b600081359050610dd881610db2565b92915050565b600060208284031215610df457610df3610cb8565b5b6000610e0284828501610dc9565b91505092915050565b60008060408385031215610e2257610e21610cb8565b5b6000610e3085828601610d06565b9250506020610e4185828601610dc9565b9150509250929050565b610e5481610cdd565b82525050565b6000602082019050610e6f6000830184610e4b565b92915050565b7f4e487b7100000000000000000000000000000000000000000000000000000000600052602260045260246000fd5b60006002820490506001821680610ebc57607f821691505b602082108103610ecf57610ece610e75565b5b50919050565b6000604082019050610eea6000830185610e4b565b610ef76020830184610d52565b9392505050565b610f0781610d7c565b8114610f1257600080fd5b50565b600081519050610f2481610efe565b92915050565b600060208284031215610f4057610f3f610cb8565b5b6000610f4e84828501610f15565b91505092915050565b7f4e487b7100000000000000000000000000000000000000000000000000000000600052603260045260246000fd5b7f4e487b7100000000000000000000000000000000000000000000000000000000600052601160045260246000fd5b6000610fc082610d48565b9150610fcb83610d48565b9250828202610fd981610d48565b91508282048414831517610ff057610fef610f86565b5b5092915050565b7f4e487b7100000000000000000000000000000000000000000000000000000000600052601260045260246000fd5b600061103182610d48565b915061103c83610d48565b92508261104c5761104b610ff7565b5b828204905092915050565b600061106282610d48565b915061106d83610d48565b925082820190508082111561108557611084610f86565b5b92915050565b600061109682610d48565b91506110a183610d48565b92508282039050818111156110b9576110b8610f86565b5b92915050565b7f496e76616c6964206f776e657221000000000000000000000000000000000000600082015250565b60006110f5600e83610c11565b9150611100826110bf565b602082019050919050565b60006020820190508181036000830152611124816110e8565b9050919050565b7f496e76616c696420616d6f756e74210000000000000000000000000000000000600082015250565b6000611161600f83610c11565b915061116c8261112b565b602082019050919050565b6000602082019050818103600083015261119081611154565b905091905056fea2646970667358221220b423e59ef61e450f1f6212c5434b23d6db9c095c7e5a494aa42a3ed4c3d4122964736f6c63430008180033",
  "linkReferences": {},
  "deployedLinkReferences": {}
}