{
  "_format": "hh-sol-artifact-1",
  "contractName": "TokenVesting",
  "sourceName": "contracts/TokenVesting.sol",
  "abi": [
    {
      "inputs": [
        {
          "internalType": "address",
          "name": "_owner",
          "type": "address"
        },
        {
          "internalType": "string",
          "name": "_name",
          "type": "string"
        },
        {
          "internalType": "address",
          "name": "token_",
          "type": "address"
        }
      ],
      "stateMutability": "nonpayable",
      "type": "constructor"
    },
    {
      "inputs": [],
      "name": "ReentrancyGuardReentrantCall",
      "type": "error"
    },
    {
      "stateMutability": "payable",
      "type": "fallback"
    },
    {
      "inputs": [
        {
          "internalType": "address",
          "name": "holder",
          "type": "address"
        }
      ],
      "name": "computeNextVestingScheduleIdForHolder",
      "outputs": [
        {
          "internalType": "bytes32",
          "name": "",
          "type": "bytes32"
        }
      ],
      "stateMutability": "view",
      "type": "function"
    },
    {
      "inputs": [
        {
          "internalType": "bytes32",
          "name": "vestingScheduleId",
          "type": "bytes32"
        }
      ],
      "name": "computeReleasableAmount",
      "outputs": [
        {
          "internalType": "uint256",
          "name": "",
          "type": "uint256"
        }
      ],
      "stateMutability": "view",
      "type": "function"
    },
    {
      "inputs": [
        {
          "internalType": "address",
          "name": "holder",
          "type": "address"
        },
        {
          "internalType": "uint256",
          "name": "index",
          "type": "uint256"
        }
      ],
      "name": "computeVestingScheduleIdForAddressAndIndex",
      "outputs": [
        {
          "internalType": "bytes32",
          "name": "",
          "type": "bytes32"
        }
      ],
      "stateMutability": "pure",
      "type": "function"
    },
    {
      "inputs": [
        {
          "internalType": "address",
          "name": "_beneficiary",
          "type": "address"
        },
        {
          "internalType": "uint256",
          "name": "_start",
          "type": "uint256"
        },
        {
          "internalType": "uint256",
          "name": "_cliff",
          "type": "uint256"
        },
        {
          "internalType": "uint256",
          "name": "_duration",
          "type": "uint256"
        },
        {
          "internalType": "uint256",
          "name": "_slicePeriodSeconds",
          "type": "uint256"
        },
        {
          "internalType": "bool",
          "name": "_revocable",
          "type": "bool"
        },
        {
          "internalType": "uint256",
          "name": "_amount",
          "type": "uint256"
        }
      ],
      "name": "createVestingSchedule",
      "outputs": [],
      "stateMutability": "nonpayable",
      "type": "function"
    },
    {
      "inputs": [
        {
          "internalType": "address",
          "name": "holder",
          "type": "address"
        }
      ],
      "name": "getLastVestingScheduleForHolder",
      "outputs": [
        {
          "components": [
            {
              "internalType": "address",
              "name": "beneficiary",
              "type": "address"
            },
            {
              "internalType": "uint256",
              "name": "cliff",
              "type": "uint256"
            },
            {
              "internalType": "uint256",
              "name": "start",
              "type": "uint256"
            },
            {
              "internalType": "uint256",
              "name": "duration",
              "type": "uint256"
            },
            {
              "internalType": "uint256",
              "name": "slicePeriodSeconds",
              "type": "uint256"
            },
            {
              "internalType": "bool",
              "name": "revocable",
              "type": "bool"
            },
            {
              "internalType": "uint256",
              "name": "amountTotal",
              "type": "uint256"
            },
            {
              "internalType": "uint256",
              "name": "released",
              "type": "uint256"
            },
            {
              "internalType": "bool",
              "name": "revoked",
              "type": "bool"
            }
          ],
          "internalType": "struct TokenVesting.VestingSchedule",
          "name": "",
          "type": "tuple"
        }
      ],
      "stateMutability": "view",
      "type": "function"
    },
    {
      "inputs": [],
      "name": "getToken",
      "outputs": [
        {
          "internalType": "address",
          "name": "",
          "type": "address"
        }
      ],
      "stateMutability": "view",
      "type": "function"
    },
    {
      "inputs": [
        {
          "internalType": "uint256",
          "name": "index",
          "type": "uint256"
        }
      ],
      "name": "getVestingIdAtIndex",
      "outputs": [
        {
          "internalType": "bytes32",
          "name": "",
          "type": "bytes32"
        }
      ],
      "stateMutability": "view",
      "type": "function"
    },
    {
      "inputs": [
        {
          "internalType": "bytes32",
          "name": "vestingScheduleId",
          "type": "bytes32"
        }
      ],
      "name": "getVestingSchedule",
      "outputs": [
        {
          "components": [
            {
              "internalType": "address",
              "name": "beneficiary",
              "type": "address"
            },
            {
              "internalType": "uint256",
              "name": "cliff",
              "type": "uint256"
            },
            {
              "internalType": "uint256",
              "name": "start",
              "type": "uint256"
            },
            {
              "internalType": "uint256",
              "name": "duration",
              "type": "uint256"
            },
            {
              "internalType": "uint256",
              "name": "slicePeriodSeconds",
              "type": "uint256"
            },
            {
              "internalType": "bool",
              "name": "revocable",
              "type": "bool"
            },
            {
              "internalType": "uint256",
              "name": "amountTotal",
              "type": "uint256"
            },
            {
              "internalType": "uint256",
              "name": "released",
              "type": "uint256"
            },
            {
              "internalType": "bool",
              "name": "revoked",
              "type": "bool"
            }
          ],
          "internalType": "struct TokenVesting.VestingSchedule",
          "name": "",
          "type": "tuple"
        }
      ],
      "stateMutability": "view",
      "type": "function"
    },
    {
      "inputs": [
        {
          "internalType": "address",
          "name": "holder",
          "type": "address"
        },
        {
          "internalType": "uint256",
          "name": "index",
          "type": "uint256"
        }
      ],
      "name": "getVestingScheduleByAddressAndIndex",
      "outputs": [
        {
          "components": [
            {
              "internalType": "address",
              "name": "beneficiary",
              "type": "address"
            },
            {
              "internalType": "uint256",
              "name": "cliff",
              "type": "uint256"
            },
            {
              "internalType": "uint256",
              "name": "start",
              "type": "uint256"
            },
            {
              "internalType": "uint256",
              "name": "duration",
              "type": "uint256"
            },
            {
              "internalType": "uint256",
              "name": "slicePeriodSeconds",
              "type": "uint256"
            },
            {
              "internalType": "bool",
              "name": "revocable",
              "type": "bool"
            },
            {
              "internalType": "uint256",
              "name": "amountTotal",
              "type": "uint256"
            },
            {
              "internalType": "uint256",
              "name": "released",
              "type": "uint256"
            },
            {
              "internalType": "bool",
              "name": "revoked",
              "type": "bool"
            }
          ],
          "internalType": "struct TokenVesting.VestingSchedule",
          "name": "",
          "type": "tuple"
        }
      ],
      "stateMutability": "view",
      "type": "function"
    },
    {
      "inputs": [],
      "name": "getVestingSchedulesCount",
      "outputs": [
        {
          "internalType": "uint256",
          "name": "",
          "type": "uint256"
        }
      ],
      "stateMutability": "view",
      "type": "function"
    },
    {
      "inputs": [
        {
          "internalType": "address",
          "name": "_beneficiary",
          "type": "address"
        }
      ],
      "name": "getVestingSchedulesCountByBeneficiary",
      "outputs": [
        {
          "internalType": "uint256",
          "name": "",
          "type": "uint256"
        }
      ],
      "stateMutability": "view",
      "type": "function"
    },
    {
      "inputs": [],
      "name": "getVestingSchedulesTotalAmount",
      "outputs": [
        {
          "internalType": "uint256",
          "name": "",
          "type": "uint256"
        }
      ],
      "stateMutability": "view",
      "type": "function"
    },
    {
      "inputs": [],
      "name": "getWithdrawableAmount",
      "outputs": [
        {
          "internalType": "uint256",
          "name": "",
          "type": "uint256"
        }
      ],
      "stateMutability": "view",
      "type": "function"
    },
    {
      "inputs": [],
      "name": "name",
      "outputs": [
        {
          "internalType": "string",
          "name": "",
          "type": "string"
        }
      ],
      "stateMutability": "view",
      "type": "function"
    },
    {
      "inputs": [],
      "name": "owner",
      "outputs": [
        {
          "internalType": "address",
          "name": "",
          "type": "address"
        }
      ],
      "stateMutability": "view",
      "type": "function"
    },
    {
      "inputs": [
        {
          "internalType": "bytes32",
          "name": "vestingScheduleId",
          "type": "bytes32"
        },
        {
          "internalType": "uint256",
          "name": "amount",
          "type": "uint256"
        }
      ],
      "name": "release",
      "outputs": [],
      "stateMutability": "nonpayable",
      "type": "function"
    },
    {
      "inputs": [
        {
          "internalType": "bytes32",
          "name": "vestingScheduleId",
          "type": "bytes32"
        }
      ],
      "name": "revoke",
      "outputs": [],
      "stateMutability": "nonpayable",
      "type": "function"
    },
    {
      "inputs": [
        {
          "internalType": "uint256",
          "name": "amount",
          "type": "uint256"
        }
      ],
      "name": "withdraw",
      "outputs": [],
      "stateMutability": "nonpayable",
      "type": "function"
    },
    {
      "stateMutability": "payable",
      "type": "receive"
    }
  ],
  "bytecode": "0x60a06040523480156200001157600080fd5b5060405162002e0438038062002e04833981810160405281019062000037919062000301565b6001600081905550600073ffffffffffffffffffffffffffffffffffffffff168173ffffffffffffffffffffffffffffffffffffffff16036200007957600080fd5b81600290816200008a9190620005c7565b5082600160006101000a81548173ffffffffffffffffffffffffffffffffffffffff021916908373ffffffffffffffffffffffffffffffffffffffff1602179055508073ffffffffffffffffffffffffffffffffffffffff1660808173ffffffffffffffffffffffffffffffffffffffff1681525050505050620006ae565b6000604051905090565b600080fd5b600080fd5b600073ffffffffffffffffffffffffffffffffffffffff82169050919050565b60006200014a826200011d565b9050919050565b6200015c816200013d565b81146200016857600080fd5b50565b6000815190506200017c8162000151565b92915050565b600080fd5b600080fd5b6000601f19601f8301169050919050565b7f4e487b7100000000000000000000000000000000000000000000000000000000600052604160045260246000fd5b620001d7826200018c565b810181811067ffffffffffffffff82111715620001f957620001f86200019d565b5b80604052505050565b60006200020e62000109565b90506200021c8282620001cc565b919050565b600067ffffffffffffffff8211156200023f576200023e6200019d565b5b6200024a826200018c565b9050602081019050919050565b60005b83811015620002775780820151818401526020810190506200025a565b60008484015250505050565b60006200029a620002948462000221565b62000202565b905082815260208101848484011115620002b957620002b862000187565b5b620002c684828562000257565b509392505050565b600082601f830112620002e657620002e562000182565b5b8151620002f884826020860162000283565b91505092915050565b6000806000606084860312156200031d576200031c62000113565b5b60006200032d868287016200016b565b935050602084015167ffffffffffffffff81111562000351576200035062000118565b5b6200035f86828701620002ce565b925050604062000372868287016200016b565b9150509250925092565b600081519050919050565b7f4e487b7100000000000000000000000000000000000000000000000000000000600052602260045260246000fd5b60006002820490506001821680620003cf57607f821691505b602082108103620003e557620003e462000387565b5b50919050565b60008190508160005260206000209050919050565b60006020601f8301049050919050565b600082821b905092915050565b6000600883026200044f7fffffffffffffffffffffffffffffffffffffffffffffffffffffffffffffffff8262000410565b6200045b868362000410565b95508019841693508086168417925050509392505050565b6000819050919050565b6000819050919050565b6000620004a8620004a26200049c8462000473565b6200047d565b62000473565b9050919050565b6000819050919050565b620004c48362000487565b620004dc620004d382620004af565b8484546200041d565b825550505050565b600090565b620004f3620004e4565b62000500818484620004b9565b505050565b5b8181101562000528576200051c600082620004e9565b60018101905062000506565b5050565b601f82111562000577576200054181620003eb565b6200054c8462000400565b810160208510156200055c578190505b620005746200056b8562000400565b83018262000505565b50505b505050565b600082821c905092915050565b60006200059c600019846008026200057c565b1980831691505092915050565b6000620005b7838362000589565b9150826002028217905092915050565b620005d2826200037c565b67ffffffffffffffff811115620005ee57620005ed6200019d565b5b620005fa8254620003b6565b620006078282856200052c565b600060209050601f8311600181146200063f57600084156200062a578287015190505b620006368582620005a9565b865550620006a6565b601f1984166200064f86620003eb565b60005b82811015620006795784890151825560018201915060208501945060208101905062000652565b8683101562000699578489015162000695601f89168262000589565b8355505b6001600288020188555050505b505050505050565b608051612725620006df6000396000818161095c01528181610a6501528181610e1e015261107701526127256000f3fe60806040526004361061010d5760003560e01c80638af104da11610095578063b75c7dc611610064578063b75c7dc614610387578063ea1bb3d5146103b0578063f51321d7146103ed578063f7c469f01461042a578063f9079b371461046757610114565b80638af104da146102b75780638da5cb5b146102f457806390be10cc1461031f5780639ef346b41461034a57610114565b80632e1a7d4d116100dc5780632e1a7d4d146101c057806348deb471146101e95780635a7bb69a1461021457806366afd8ef146102515780637e913dc61461027a57610114565b806306fdde0314610116578063130836171461014157806317e289e91461016c57806321df0da71461019557610114565b3661011457005b005b34801561012257600080fd5b5061012b6104a4565b60405161013891906118c7565b60405180910390f35b34801561014d57600080fd5b50610156610532565b6040516101639190611902565b60405180910390f35b34801561017857600080fd5b50610193600480360381019061018e91906119e4565b61053f565b005b3480156101a157600080fd5b506101aa610958565b6040516101b79190611a95565b60405180910390f35b3480156101cc57600080fd5b506101e760048036038101906101e29190611ab0565b610980565b005b3480156101f557600080fd5b506101fe610b0e565b60405161020b9190611902565b60405180910390f35b34801561022057600080fd5b5061023b60048036038101906102369190611add565b610b18565b6040516102489190611902565b60405180910390f35b34801561025d57600080fd5b5061027860048036038101906102739190611b40565b610b61565b005b34801561028657600080fd5b506102a1600480360381019061029c9190611add565b610ecd565b6040516102ae9190611c64565b60405180910390f35b3480156102c357600080fd5b506102de60048036038101906102d99190611c80565b611017565b6040516102eb9190611ccf565b60405180910390f35b34801561030057600080fd5b5061030961104a565b6040516103169190611a95565b60405180910390f35b34801561032b57600080fd5b50610334611070565b6040516103419190611902565b60405180910390f35b34801561035657600080fd5b50610371600480360381019061036c9190611cea565b61111e565b60405161037e9190611c64565b60405180910390f35b34801561039357600080fd5b506103ae60048036038101906103a99190611cea565b611214565b005b3480156103bc57600080fd5b506103d760048036038101906103d29190611cea565b611482565b6040516103e49190611902565b60405180910390f35b3480156103f957600080fd5b50610414600480360381019061040f9190611c80565b6115b0565b6040516104219190611c64565b60405180910390f35b34801561043657600080fd5b50610451600480360381019061044c9190611add565b6115d2565b60405161045e9190611ccf565b60405180910390f35b34801561047357600080fd5b5061048e60048036038101906104899190611ab0565b611624565b60405161049b9190611ccf565b60405180910390f35b600280546104b190611d46565b80601f01602080910402602001604051908101604052809291908181526020018280546104dd90611d46565b801561052a5780601f106104ff5761010080835404028352916020019161052a565b820191906000526020600020905b81548152906001019060200180831161050d57829003601f168201915b505050505081565b6000600380549050905090565b600160009054906101000a900473ffffffffffffffffffffffffffffffffffffffff163373ffffffffffffffffffffffffffffffffffffffff168173ffffffffffffffffffffffffffffffffffffffff16146105d0576040517f08c379a00000000000000000000000000000000000000000000000000000000081526004016105c790611dc3565b60405180910390fd5b816105d9611070565b101561061a576040517f08c379a000000000000000000000000000000000000000000000000000000000815260040161061190611e7b565b60405180910390fd5b6000851161065d576040517f08c379a000000000000000000000000000000000000000000000000000000000815260040161065490611f0d565b60405180910390fd5b600082116106a0576040517f08c379a000000000000000000000000000000000000000000000000000000000815260040161069790611f79565b60405180910390fd5b60018410156106e4576040517f08c379a00000000000000000000000000000000000000000000000000000000081526004016106db9061200b565b60405180910390fd5b85851015610727576040517f08c379a000000000000000000000000000000000000000000000000000000000815260040161071e9061209d565b60405180910390fd5b6000610732896115d2565b90506000878961074291906120ec565b90506040518061012001604052808b73ffffffffffffffffffffffffffffffffffffffff1681526020018281526020018a8152602001888152602001878152602001861515815260200185815260200160008152602001600015158152506004600084815260200190815260200160002060008201518160000160006101000a81548173ffffffffffffffffffffffffffffffffffffffff021916908373ffffffffffffffffffffffffffffffffffffffff1602179055506020820151816001015560408201518160020155606082015181600301556080820151816004015560a08201518160050160006101000a81548160ff02191690831515021790555060c0820151816006015560e082015181600701556101008201518160080160006101000a81548160ff0219169083151502179055509050508360055461088891906120ec565b60058190555060038290806001815401808255809150506001900390600052602060002001600090919091909150556000600660008c73ffffffffffffffffffffffffffffffffffffffff1673ffffffffffffffffffffffffffffffffffffffff16815260200190815260200160002054905060018161090891906120ec565b600660008d73ffffffffffffffffffffffffffffffffffffffff1673ffffffffffffffffffffffffffffffffffffffff168152602001908152602001600020819055505050505050505050505050565b60007f0000000000000000000000000000000000000000000000000000000000000000905090565b610988611695565b600160009054906101000a900473ffffffffffffffffffffffffffffffffffffffff163373ffffffffffffffffffffffffffffffffffffffff168173ffffffffffffffffffffffffffffffffffffffff1614610a19576040517f08c379a0000000000000000000000000000000000000000000000000000000008152600401610a1090611dc3565b60405180910390fd5b81610a22611070565b1015610a63576040517f08c379a0000000000000000000000000000000000000000000000000000000008152600401610a5a90612192565b60405180910390fd5b7f000000000000000000000000000000000000000000000000000000000000000073ffffffffffffffffffffffffffffffffffffffff1663a9059cbb33846040518363ffffffff1660e01b8152600401610abe9291906121b2565b6020604051808303816000875af1158015610add573d6000803e3d6000fd5b505050506040513d601f19601f82011682018060405250810190610b0191906121f0565b5050610b0b6116db565b50565b6000600554905090565b6000600660008373ffffffffffffffffffffffffffffffffffffffff1673ffffffffffffffffffffffffffffffffffffffff168152602001908152602001600020549050919050565b610b69611695565b816004600082815260200190815260200160002060080160009054906101000a900460ff1615610b9857600080fd5b600060046000858152602001908152602001600020905060008160000160009054906101000a900473ffffffffffffffffffffffffffffffffffffffff1673ffffffffffffffffffffffffffffffffffffffff163373ffffffffffffffffffffffffffffffffffffffff161490506000600160009054906101000a900473ffffffffffffffffffffffffffffffffffffffff1673ffffffffffffffffffffffffffffffffffffffff163373ffffffffffffffffffffffffffffffffffffffff161490508180610c645750805b610ca3576040517f08c379a0000000000000000000000000000000000000000000000000000000008152600401610c9a906122b5565b60405180910390fd5b6000610d8284604051806101200160405290816000820160009054906101000a900473ffffffffffffffffffffffffffffffffffffffff1673ffffffffffffffffffffffffffffffffffffffff1673ffffffffffffffffffffffffffffffffffffffff168152602001600182015481526020016002820154815260200160038201548152602001600482015481526020016005820160009054906101000a900460ff1615151515815260200160068201548152602001600782015481526020016008820160009054906101000a900460ff1615151515815250506116e5565b905085811015610dc7576040517f08c379a0000000000000000000000000000000000000000000000000000000008152600401610dbe90612347565b60405180910390fd5b858460070154610dd791906120ec565b846007018190555060008460000160009054906101000a900473ffffffffffffffffffffffffffffffffffffffff16905086600554610e169190612367565b6005819055507f000000000000000000000000000000000000000000000000000000000000000073ffffffffffffffffffffffffffffffffffffffff1663a9059cbb82896040518363ffffffff1660e01b8152600401610e779291906123fa565b6020604051808303816000875af1158015610e96573d6000803e3d6000fd5b505050506040513d601f19601f82011682018060405250810190610eba91906121f0565b50505050505050610ec96116db565b5050565b610ed56117d1565b60046000610f2e846001600660008873ffffffffffffffffffffffffffffffffffffffff1673ffffffffffffffffffffffffffffffffffffffff16815260200190815260200160002054610f299190612367565b611017565b8152602001908152602001600020604051806101200160405290816000820160009054906101000a900473ffffffffffffffffffffffffffffffffffffffff1673ffffffffffffffffffffffffffffffffffffffff1673ffffffffffffffffffffffffffffffffffffffff168152602001600182015481526020016002820154815260200160038201548152602001600482015481526020016005820160009054906101000a900460ff1615151515815260200160068201548152602001600782015481526020016008820160009054906101000a900460ff1615151515815250509050919050565b6000828260405160200161102c92919061248c565b60405160208183030381529060405280519060200120905092915050565b600160009054906101000a900473ffffffffffffffffffffffffffffffffffffffff1681565b60006005547f000000000000000000000000000000000000000000000000000000000000000073ffffffffffffffffffffffffffffffffffffffff166370a08231306040518263ffffffff1660e01b81526004016110ce9190611a95565b602060405180830381865afa1580156110eb573d6000803e3d6000fd5b505050506040513d601f19601f8201168201806040525081019061110f91906124cd565b6111199190612367565b905090565b6111266117d1565b60046000838152602001908152602001600020604051806101200160405290816000820160009054906101000a900473ffffffffffffffffffffffffffffffffffffffff1673ffffffffffffffffffffffffffffffffffffffff1673ffffffffffffffffffffffffffffffffffffffff168152602001600182015481526020016002820154815260200160038201548152602001600482015481526020016005820160009054906101000a900460ff1615151515815260200160068201548152602001600782015481526020016008820160009054906101000a900460ff1615151515815250509050919050565b600160009054906101000a900473ffffffffffffffffffffffffffffffffffffffff163373ffffffffffffffffffffffffffffffffffffffff168173ffffffffffffffffffffffffffffffffffffffff16146112a5576040517f08c379a000000000000000000000000000000000000000000000000000000000815260040161129c90611dc3565b60405180910390fd5b816004600082815260200190815260200160002060080160009054906101000a900460ff16156112d457600080fd5b60006004600085815260200190815260200160002090508060050160009054906101000a900460ff1661133c576040517f08c379a00000000000000000000000000000000000000000000000000000000081526004016113339061256c565b60405180910390fd5b600061141b82604051806101200160405290816000820160009054906101000a900473ffffffffffffffffffffffffffffffffffffffff1673ffffffffffffffffffffffffffffffffffffffff1673ffffffffffffffffffffffffffffffffffffffff168152602001600182015481526020016002820154815260200160038201548152602001600482015481526020016005820160009054906101000a900460ff1615151515815260200160068201548152602001600782015481526020016008820160009054906101000a900460ff1615151515815250506116e5565b90506000811115611431576114308582610b61565b5b6000826007015483600601546114479190612367565b9050806005546114579190612367565b60058190555060018360080160006101000a81548160ff021916908315150217905550505050505050565b6000816004600082815260200190815260200160002060080160009054906101000a900460ff16156114b357600080fd5b60006004600085815260200190815260200160002090506115a781604051806101200160405290816000820160009054906101000a900473ffffffffffffffffffffffffffffffffffffffff1673ffffffffffffffffffffffffffffffffffffffff1673ffffffffffffffffffffffffffffffffffffffff168152602001600182015481526020016002820154815260200160038201548152602001600482015481526020016005820160009054906101000a900460ff1615151515815260200160068201548152602001600782015481526020016008820160009054906101000a900460ff1615151515815250506116e5565b92505050919050565b6115b86117d1565b6115ca6115c58484611017565b61111e565b905092915050565b600061161d82600660008573ffffffffffffffffffffffffffffffffffffffff1673ffffffffffffffffffffffffffffffffffffffff16815260200190815260200160002054611017565b9050919050565b600061162e610532565b821061166f576040517f08c379a0000000000000000000000000000000000000000000000000000000008152600401611666906125fe565b60405180910390fd5b600382815481106116835761168261261e565b5b90600052602060002001549050919050565b6002600054036116d1576040517f3ee5aeb500000000000000000000000000000000000000000000000000000000815260040160405180910390fd5b6002600081905550565b6001600081905550565b6000806116f06117c9565b9050826020015181108061170657508261010001515b156117155760009150506117c4565b8260600151836020015161172991906120ec565b811061174b578260e001518360c001516117439190612367565b9150506117c4565b600083602001518261175d9190612367565b905060008460800151905060008183611776919061267c565b90506000828261178691906126ad565b905060008760600151828960c0015161179f91906126ad565b6117a9919061267c565b90508760e00151816117bb9190612367565b96505050505050505b919050565b600042905090565b604051806101200160405280600073ffffffffffffffffffffffffffffffffffffffff1681526020016000815260200160008152602001600081526020016000815260200160001515815260200160008152602001600081526020016000151581525090565b600081519050919050565b600082825260208201905092915050565b60005b83811015611871578082015181840152602081019050611856565b60008484015250505050565b6000601f19601f8301169050919050565b600061189982611837565b6118a38185611842565b93506118b3818560208601611853565b6118bc8161187d565b840191505092915050565b600060208201905081810360008301526118e1818461188e565b905092915050565b6000819050919050565b6118fc816118e9565b82525050565b600060208201905061191760008301846118f3565b92915050565b600080fd5b600073ffffffffffffffffffffffffffffffffffffffff82169050919050565b600061194d82611922565b9050919050565b61195d81611942565b811461196857600080fd5b50565b60008135905061197a81611954565b92915050565b611989816118e9565b811461199457600080fd5b50565b6000813590506119a681611980565b92915050565b60008115159050919050565b6119c1816119ac565b81146119cc57600080fd5b50565b6000813590506119de816119b8565b92915050565b600080600080600080600060e0888a031215611a0357611a0261191d565b5b6000611a118a828b0161196b565b9750506020611a228a828b01611997565b9650506040611a338a828b01611997565b9550506060611a448a828b01611997565b9450506080611a558a828b01611997565b93505060a0611a668a828b016119cf565b92505060c0611a778a828b01611997565b91505092959891949750929550565b611a8f81611942565b82525050565b6000602082019050611aaa6000830184611a86565b92915050565b600060208284031215611ac657611ac561191d565b5b6000611ad484828501611997565b91505092915050565b600060208284031215611af357611af261191d565b5b6000611b018482850161196b565b91505092915050565b6000819050919050565b611b1d81611b0a565b8114611b2857600080fd5b50565b600081359050611b3a81611b14565b92915050565b60008060408385031215611b5757611b5661191d565b5b6000611b6585828601611b2b565b9250506020611b7685828601611997565b9150509250929050565b611b8981611942565b82525050565b611b98816118e9565b82525050565b611ba7816119ac565b82525050565b61012082016000820151611bc46000850182611b80565b506020820151611bd76020850182611b8f565b506040820151611bea6040850182611b8f565b506060820151611bfd6060850182611b8f565b506080820151611c106080850182611b8f565b5060a0820151611c2360a0850182611b9e565b5060c0820151611c3660c0850182611b8f565b5060e0820151611c4960e0850182611b8f565b50610100820151611c5e610100850182611b9e565b50505050565b600061012082019050611c7a6000830184611bad565b92915050565b60008060408385031215611c9757611c9661191d565b5b6000611ca58582860161196b565b9250506020611cb685828601611997565b9150509250929050565b611cc981611b0a565b82525050565b6000602082019050611ce46000830184611cc0565b92915050565b600060208284031215611d0057611cff61191d565b5b6000611d0e84828501611b2b565b91505092915050565b7f4e487b7100000000000000000000000000000000000000000000000000000000600052602260045260246000fd5b60006002820490506001821680611d5e57607f821691505b602082108103611d7157611d70611d17565b5b50919050565b7f496e76616c6964206f776e657221000000000000000000000000000000000000600082015250565b6000611dad600e83611842565b9150611db882611d77565b602082019050919050565b60006020820190508181036000830152611ddc81611da0565b9050919050565b7f546f6b656e56657374696e673a2063616e6e6f7420637265617465207665737460008201527f696e67207363686564756c652062656361757365206e6f74207375666669636960208201527f656e7420746f6b656e7300000000000000000000000000000000000000000000604082015250565b6000611e65604a83611842565b9150611e7082611de3565b606082019050919050565b60006020820190508181036000830152611e9481611e58565b9050919050565b7f546f6b656e56657374696e673a206475726174696f6e206d757374206265203e60008201527f2030000000000000000000000000000000000000000000000000000000000000602082015250565b6000611ef7602283611842565b9150611f0282611e9b565b604082019050919050565b60006020820190508181036000830152611f2681611eea565b9050919050565b7f546f6b656e56657374696e673a20616d6f756e74206d757374206265203e2030600082015250565b6000611f63602083611842565b9150611f6e82611f2d565b602082019050919050565b60006020820190508181036000830152611f9281611f56565b9050919050565b7f546f6b656e56657374696e673a20736c696365506572696f645365636f6e647360008201527f206d757374206265203e3d203100000000000000000000000000000000000000602082015250565b6000611ff5602d83611842565b915061200082611f99565b604082019050919050565b6000602082019050818103600083015261202481611fe8565b9050919050565b7f546f6b656e56657374696e673a206475726174696f6e206d757374206265203e60008201527f3d20636c69666600000000000000000000000000000000000000000000000000602082015250565b6000612087602783611842565b91506120928261202b565b604082019050919050565b600060208201905081810360008301526120b68161207a565b9050919050565b7f4e487b7100000000000000000000000000000000000000000000000000000000600052601160045260246000fd5b60006120f7826118e9565b9150612102836118e9565b925082820190508082111561211a576121196120bd565b5b92915050565b7f546f6b656e56657374696e673a206e6f7420656e6f756768207769746864726160008201527f7761626c652066756e6473000000000000000000000000000000000000000000602082015250565b600061217c602b83611842565b915061218782612120565b604082019050919050565b600060208201905081810360008301526121ab8161216f565b9050919050565b60006040820190506121c76000830185611a86565b6121d460208301846118f3565b9392505050565b6000815190506121ea816119b8565b92915050565b6000602082840312156122065761220561191d565b5b6000612214848285016121db565b91505092915050565b7f546f6b656e56657374696e673a206f6e6c792062656e6566696369617279206160008201527f6e64206f776e65722063616e2072656c656173652076657374656420746f6b6560208201527f6e73000000000000000000000000000000000000000000000000000000000000604082015250565b600061229f604283611842565b91506122aa8261221d565b606082019050919050565b600060208201905081810360008301526122ce81612292565b9050919050565b7f546f6b656e56657374696e673a2063616e6e6f742072656c6561736520746f6b60008201527f656e732c206e6f7420656e6f7567682076657374656420746f6b656e73000000602082015250565b6000612331603d83611842565b915061233c826122d5565b604082019050919050565b6000602082019050818103600083015261236081612324565b9050919050565b6000612372826118e9565b915061237d836118e9565b9250828203905081811115612395576123946120bd565b5b92915050565b6000819050919050565b60006123c06123bb6123b684611922565b61239b565b611922565b9050919050565b60006123d2826123a5565b9050919050565b60006123e4826123c7565b9050919050565b6123f4816123d9565b82525050565b600060408201905061240f60008301856123eb565b61241c60208301846118f3565b9392505050565b60008160601b9050919050565b600061243b82612423565b9050919050565b600061244d82612430565b9050919050565b61246561246082611942565b612442565b82525050565b6000819050919050565b612486612481826118e9565b61246b565b82525050565b60006124988285612454565b6014820191506124a88284612475565b6020820191508190509392505050565b6000815190506124c781611980565b92915050565b6000602082840312156124e3576124e261191d565b5b60006124f1848285016124b8565b91505092915050565b7f546f6b656e56657374696e673a2076657374696e67206973206e6f742072657660008201527f6f6361626c650000000000000000000000000000000000000000000000000000602082015250565b6000612556602683611842565b9150612561826124fa565b604082019050919050565b6000602082019050818103600083015261258581612549565b9050919050565b7f546f6b656e56657374696e673a20696e646578206f7574206f6620626f756e6460008201527f7300000000000000000000000000000000000000000000000000000000000000602082015250565b60006125e8602183611842565b91506125f38261258c565b604082019050919050565b60006020820190508181036000830152612617816125db565b9050919050565b7f4e487b7100000000000000000000000000000000000000000000000000000000600052603260045260246000fd5b7f4e487b7100000000000000000000000000000000000000000000000000000000600052601260045260246000fd5b6000612687826118e9565b9150612692836118e9565b9250826126a2576126a161264d565b5b828204905092915050565b60006126b8826118e9565b91506126c3836118e9565b92508282026126d1816118e9565b915082820484148315176126e8576126e76120bd565b5b509291505056fea2646970667358221220c74436dda1a6abae72cf03c8b74490039880cca85c60fef7e1fb35174b97bcbc64736f6c63430008180033",
  "linkReferences": {},
  "deployedLinkReferences": {}
}